:100000000C9470030C9449250C948D030C948D036F
:100010000C948D030C948D030C948D030C948D0320
:100020000C948D030C948D030C947B2C0C944D2D0F
:100030000C948F270C948D030C948D030C948D03DA
:100040000C948D030C948D030C948D030C948D03F0
:100050000C948D030C9434280C948D030C948D0314
:100060000C948D030C948D030C948D030C948D03D0
:100070000C948D030C948D030C948D030C948D03C0
:100080000C948D030C948D030C948D030C948D03B0
:100090000C948D030C948D030C948D030C948D03A0
:1000A0000C948D030C948D030C948D039A069A0680
:1000B000C606C60634075207410841085707CD0750
:1000C000DE07DE07DC20DF20E420EB20F020F52037
:1000D000FA20FF20042109210E21132115211821C6
:1000E0001B211E2121212421262129212D21D1213D
:1000F0004322D921A321A721DD21AA21E021EB213F
:10010000B5213922B921EF21BD21F3211D22C121C1
:10011000F7212722C721FD210722AE21E421B121A9
:10012000E721CC2102221322332235229F21D5211F
:100130004C2285248B2479247F24912497249D2488
:10014000B52DDC2DD42EDC2DD42E282E4B2ED42EE6
:10015000A22EB12E35421E001F00200021002200D9
:1001600021522B0014001A000800150017002F0060
:10017000290004001600070009000A004B43E100B3
:100180001D001B000600190005004E00E30057008B
:100190005600552431212A004C002D42270026000C
:1001A00025002400230021522E00130012000C0011
:1001B00018001C003000340033000F000E000D004A
:1001C0000B004D43E50038003700360010001100E9
:1001D0004A004F00520051005000E6002C00280059
:1001E00001003A003B003C003D003E0001000100E0
:1001F0001E021F022F023002310201000100200204
:1002000021022F00300035000100010022022302EC
:100210002602270235020100010001000100010051
:1002200001000100010000004300420041004000C5
:100230003F00010000005600610060005F005400B4
:100240000100000057005E005D005C0055000100E9
:10025000000058005B005A00590000000100000037
:10026000580063006200620001000100010001000B
:100270000100010001000100010000000000CD00AC
:100280000000D900000001000000CF00CE00D00027
:10029000DA00000001000000000000000000000083
:1002A000000001000000000000000000D100D200AA
:1002B0000100010001000100010001000100010036
:1002C000000000000000000000000000010000002D
:1002D00000004F00520051005000000000000000DC
:1002E000000000000000000001000000000000000D
:1002F000000000000100010000003A003B003C004B
:100300003D003E0023780000007C2B782078217887
:100310002478000000000000000000000000000041
:1003200001000000000000000000000000000000CC
:1003300000000000000000000000000000000000BD
:1003400043004200410040003F00267800000000CA
:1003500000002778287825780000000000000000C1
:10036000000000000000010000000000000000008C
:10037000000000000000000000000000000000007D
:10038000000000001E0F0500047F3F1F643214644C
:100390003214783C1E1E140A052223252628292AF9
:1003A0002C2D2F3032333536383A3B3D3E404243D8
:1003B0004547494A4C4E5051535557595A5C5E6017
:1003C00062646668696B6D6F71737577797B7D7F29
:1003D00081838587898A8C8E90929496989A9C9E28
:1003E0009FA1A3A5A7A8AAACAEAFB1B3B4B6B8B944
:1003F000BBBCBEBFC1C2C3C5C6C7C9CACBCCCDCEAC
:10040000D0D1D2D2D3D4D5D6D7D7D8D9D9DADADB8E
:10041000DBDBDCDCDCDCDCDDDDDDDDDCDCDCDCDC1A
:10042000DBDBDBDADAD9D9D8D7D7D6D5D4D3D2D259
:10043000D1D0CECDCCCBCAC9C7C6C5C3C2C1BFBE41
:10044000BCBBB9B8B6B4B3B1AFAEACAAA8A7A5A3AC
:10045000A19F9E9C9A98969492908E8C8A8987856B
:1004600083817F7D7B79777573716F6D6B6968664A
:100470006462605E5C5A5957555351504E4C4A491C
:1004800047454342403E3D3B3A3836353332302FC4
:100490002D2C2A292826252322FFAA7F554000013A
:1004A0000101010101010101020202020202020234
:1004B0000203030303030303030404040404040406
:1004C00005050505050606060606070707070708CA
:1004D000080808090909090A0A0A0B0B0B0C0C0C7D
:1004E0000D0D0D0E0E0E0F0F0F1010111111121217
:1004F00013131414151516161717181819191A1A94
:100500001B1B1C1D1D1E1E1F2020212222232424F4
:10051000252626272829292A2B2C2D2D2E2F303130
:100520003232333435363738393A3B3C3D3E3F4042
:100530004142434445464748494A4C4D4E4F50512D
:100540005354555658595A5B5D5E5F6162646566E7
:1005500068696B6C6D6F7072737577787A7B7D7E6E
:100560008082838587888A8C8E8F91939596989ABE
:100570009C9EA0A2A3A5A7A9ABADAFB1B3B5B7BAD6
:10058000BCBEC0C2C4C6C9CBCDCFD1D4D6D8DBDDAA
:10059000DFE2E4E7E9EBEEF0F3F5F8FAFDFF200324
:1005A00041007400740069002700730020004B00B4
:1005B0006500790062006F00610072006400000055
:1005C0001203540069006E006B0065007200650044
:1005D000720000000403090409023B00020100A0AC
:1005E000FA090400000103010100092111010001C1
:1005F00022400007058103080001090401000103EE
:10060000000000092111010001227B00070582037F
:100610002000011201000200000008444D44520075
:10062000010102000105010902A10185020901A1E0
:100630000005091901290815002501950875018192
:10064000020501093009311581257F950275088160
:100650000609381581257F950175088106050C0A64
:1006600038021581257F950175088106C0C00501F6
:100670000980A101850319012AB700150126B700D9
:10068000950175108100C0050C0901A101850419AF
:10069000012AA002150126A002950175108100C053
:1006A00005010906A101050719E029E71500250143
:1006B00095087501810295017508810105071900EA
:1006C00029FF150026FF0095067508810005081909
:1006D000012905950575019102950175039101C0E8
:1006E00011241FBECFEFDAE0DEBFCDBF11E0A0E0E6
:1006F000B1E0ECE9F1E602C005900D92AE3EB10723
:10070000D9F723E0AEEEB1E001C01D92A838B207E0
:10071000E1F70E9448160C94CC300C940000843011
:10072000B0F46A30A0F4473090F496E4899FF00169
:10073000112487E0689FE00DF11D1124E40FF11DE5
:10074000EE0FFF1FEC5AFE4F85919491089580E0C3
:1007500090E008950E948F03089581E0089581E05C
:1007600008950E94AF03089508950E94B403089568
:10077000A5E0B0E0EEEBF3E00C94BE2F49835A8382
:100780003091F50189819A81311114C0662359F0A5
:10079000222349F00E941F0A182F682F89819A810D
:1007A0000E94FB0903C00E940D0A182F69817A81FB
:1007B000812F04C00E941F0A69817A810E94D9108A
:1007C0002596E3E00C94DA2FFC01262F408151811D
:1007D0006281738184810E94B803089581E0089545
:1007E000CF93DF93EC0160E00E94E403BE010E941E
:1007F000B503DF91CF9108950E944F1208950E9492
:100800004912089508950E94C4080E9402042FEF1F
:1008100084E39CE0215080409040E1F700C000005C
:1008200008950E9403040E945A2808950E94030418
:100830000E946B2808950F931F93CF93DF938C0131
:1008400061E00E94E403EC01B8010E94B103882337
:1008500009F449C0B801CE010E946D24882309F42F
:1008600042C0B801CE010E947B218823E1F1B8018A
:10087000CE010E94D3238823B1F1B801CE010E949A
:10088000C620882381F1F8018281882341F1C33099
:100890008CE7D807D1F040F4C115FCE7DF0791F0F1
:1008A000C130DC47A1F01BC0CB35ECE7DE07A9F077
:1008B000CC35FCE7DF0771F0CA35DC4781F40E94D4
:1008C0005A0E0DC00E9411040EC00E94620E0E94BA
:1008D000160409C00E94500E02C00E945E0EC8019C
:1008E0000E94AD0301C080E0DF91CF911F910F9175
:1008F00008950E9468270E94A30408950E94A704F7
:100900000E947127089508950E948304089581E04C
:1009100008950895CF93DF93D82F0E948704C82F9E
:10092000882319F08D2F0E9489048C2FDF91CF919D
:1009300008950895CF93C82F0E9484048C2F0E949D
:100940008A04CF91089580E00E949A0408950E943D
:1009500074260E949A040895CF930E947426C82F8B
:100960008091F001C81779F0C093F0010E94FD2733
:100970006093F1017093F2018093F3019093F4017D
:100980008C2F0E949A04CF910895ABE0B0E0EBEC7D
:10099000F4E00C94BF2F4F83588769877A878B8741
:1009A00061110E94980D9E012F5F3F4F86E0F90173
:1009B00011928A95E9F785E0FE013796D9010190F9
:1009C0000D928A95E1F789819A814C815D81452B51
:1009D00031F09F3F31F491E08F3F19F403C091E073
:1009E00001C090E090FF09C049815A816B817C81F0
:1009F0008D819E810E94C40C05C0C9010E94EE0336
:100A00008111F2CF2B96E2E00C94DB2FFC01808168
:100A100091810E94510A0895662319F00E94CD1613
:100A200002C00E9428170E949F170895CF93882321
:100A300009F4A9C0C82F8238C1F40E94742681FD30
:100A4000A2C069E380910401909105010E942D27C5
:100A50000E94BC0D2FEF87EE93E021508040904024
:100A6000E1F700C0000069E319C0833801F50E9476
:100A7000742680FD88C063E5809104019091050192
:100A80000E942D270E94BC0D2FEF81EE94E0215093
:100A900080409040E1F700C0000063E580910401D0
:100AA000909105010E9430270E94BC0D6CC08438D3
:100AB000C1F40E94742682FD66C067E4809104013F
:100AC000909105010E942D270E94BC0D2FEF81EE11
:100AD00094E0215080409040E1F700C0000067E4BE
:100AE000DDCF8CEF8C0F813AF8F48C2F0E948A2393
:100AF000811149C06C2F80910401909105010E94E1
:100B0000F726882349F06C2F80910401909105010C
:100B10000E9430270E94BC0D6C2F8091040190919F
:100B200005010E942D27C0CF80E28C0F883048F449
:100B3000C77081E001C0880FCA95EAF70E947B0D5B
:100B4000B3CFEBE5EC0FE33040F4F0E0E358FE4FB9
:100B5000808190E00E94A12616C0E8E5EC0FE93103
:100B600050F4F0E0EE0FFF1FE55BFE4F80819181B6
:100B70000E94C62608C083E38C0F833120F461E015
:100B80008C2F0E940C05CF910895882309F468C02A
:100B9000823879F40E94742681FF62C069E38091F3
:100BA0000401909105010E942D270E94BC0D69E36C
:100BB00010C08338B9F40E94742680FF51C063E5E9
:100BC00080910401909105010E942D270E94BC0D87
:100BD00063E580910401909105010E9430270E94F5
:100BE000BC0D0895843879F40E94742682FF38C0C1
:100BF00067E480910401909105010E942D270E94D5
:100C0000BC0D67E4E6CF9CEF980F913A10F4682F83
:100C1000E0CF90E2980F983050F4877091E001C0D7
:100C2000990F8A95EAF7892F0E94810DD8CF9BE50D
:100C3000980F933028F480E090E00E94A126089558
:100C400098E5980F993128F480E090E00E94C6263C
:100C5000089593E3980F933118F460E00E940C0517
:100C600008951F93CF93DF93182FEB010E94160571
:100C7000209741F08FE99FE00197F1F700C0000055
:100C80002197F6CF812F0E94C505DF91CF911F914B
:100C90000895893319F060E070E002C060E570E00B
:100CA0000E9431060895882321F00E947B0D0E9446
:100CB000BC0D0895882321F00E94810D0E94BC0D77
:100CC0000895A0E0B0E0E7E6F6E00C94B92F7C01CF
:100CD000162FC72FFC01D281058102950F700E944B
:100CE000710D8823B9F0DD23A9F08C2F807F80342B
:100CF00021F080E2810F883068F08091310382FF1B
:100D000009C082E00E941E0E0E94710D91E0D82E53
:100D1000D92601C0D12CCC2EC2948FE0C8228C2DB4
:100D200090E08C30910508F0ACC1FC01EA5AFF4F0D
:100D30000C94782F8C2F807FCF70882311F0C29570
:100D4000C07FDD2399F0CC2309F487C180E2810FB5
:100D5000883010F0111104C08C2F0E947B0D03C04D
:100D60008C2F0E948B0D0E94BC0D77C1812F0E9499
:100D7000C505CC2309F485C180E2810F883038F1A4
:100D8000112329F18C2F0E94910D24C08C2F807F7C
:100D9000CF70803211F0C295C07F112319F011304D
:100DA000D1F143C08091310382FD17C0DD2349F0AA
:100DB000CC2329F08C2F0E947B0D0E94BC0D80E07B
:100DC0004DC180E00E94C505CC2309F45AC18C2F87
:100DD0000E94810D0E94BC0D54C1DD2371F00023DF
:100DE00041F0013031F40E949B0D8C2B0E94A50D27
:100DF00048C10E949B0D8C2B23C0011103C00E948F
:100E0000B20D2EC0013009F43CC18C2F0E945A064D
:100E10000E94B20D36C1DD2321F0063008F031C149
:100E20000EC0053008F02DC11BC0DD2361F000238A
:100E300031F0F701858180FF10C18F7085838C2F81
:100E40000E9453061EC1002359F0193309F016C140
:100E5000FFEF27EE83E0F15020408040E1F70CC126
:100E60008C2F0E945A060DC18C2F86958695837013
:100E700019F0813061F005C1DD2321F0812F9C2F15
:100E8000937002C080E090E00E94A12602C1DD23A1
:100E900021F0812F9C2F937002C080E090E00E948F
:100EA000C626F7C06D2F812F0E940C05F2C08C2F33
:100EB0008370B1F5D111E9C0412F42954695477035
:100EC000440F440F812F8F7090E09C01042E02C0CC
:100ED000220F331F0A94E2F714FF0AC08FE090E05C
:100EE00002C0880F991F4A95E2F78095909502C03D
:100EF00080E090E0C695C695C370822B932BC230DC
:100F000049F058F4C13019F00E942E09BEC00E9469
:100F10002509BBC00E943709B8C00E942209B5C08C
:100F2000DD2319F08C2F817001C08695882309F488
:100F3000ACC0412F429546954770440F440F812F16
:100F40008F7090E09C01042E02C0220F331F0A9480
:100F5000E2F714FF0AC08FE090E002C0880F991FEB
:100F60004A95E2F78095909502C080E090E0C695A2
:100F7000C695C370822B932BC23049F058F4C13010
:100F800019F00E94960981C00E948D097EC00E94BE
:100F90009F097BC00E94430978C0CF70DD2339F0E0
:100FA0008C2F0E945B09812F0E9453066EC0812FF7
:100FB0000E945A068C2F0E946B0967C0123F21F1D4
:100FC00028F4103F41F0113FC1F043C0133F19F125
:100FD000143F79F03EC0DD2341F0053008F051C0E8
:100FE0008C2F8F710E947D094CC0063008F049C0DB
:100FF000F7CF8091310382FD18C0DD2339F08C2FAB
:101000008F710E945B093DC0DD23C9F38C2F8F7166
:101010000E946B0936C0DD2329F08C2F8F710E944E
:101020004F092FC00E944A092CC0DD2349F0CF711F
:101030008C2F0E945B0963E08C2F0E94000E21C060
:1010400081E00E941E0E0230E0F082E00E941E0E3F
:1010500018C0DD2331F0002391F2812F0E94160584
:1010600010C0002399F2193349F49FEFE7EEF3E043
:101070009150E040F040E1F700C00000812F0E9455
:10108000C50588EF8C0D843020F40E9474260E94E0
:101090009A04DD2089F00E946D0D80FD0DC0F701DE
:1010A00012820E94670D0E945B09C7010E947908A5
:1010B0000E94670D0E946B09CDB7DEB7E8E00C9483
:1010C000D52F0F931F93CF93DF93EC016881798124
:1010D0008A810E945C0A8C010E94A8090E9413095F
:1010E000B801CE010E946106DF91CF911F910F914F
:1010F0000895CF93DF93EC01988189812B813C8106
:10110000232B31F08F3F31F481E09F3F19F403C06E
:1011100081E001C080E080FD1AC0CE010E941B0466
:1011200081110FC00E94710D882389F08A81882364
:1011300071F08091310382FF0AC082E00E941E0E8E
:1011400006C0CE010E946108CE010E94F003DF912B
:10115000CF91089580E090E00E94A12680E090E089
:101160000E94C6260E94980D0E94BC0D0E94BE17C8
:101170000E949F17089580910401909105010E949B
:1011800033270E94AA0808950E94880D0E94BB0878
:10119000089592959F70963079F010F4925001C0A6
:1011A0009A50923068F4803F69F018F4883E40F419
:1011B00009C0843F29F406C0883E20F0813F11F029
:1011C00080E0089581E00895FC0190818181238170
:1011D0003481232B31F08F3F31F481E09F3F19F4AC
:1011E00003C081E001C080E080FD07C08081918163
:1011F0000E94510A0E94C908089580E00895A5E060
:10120000B0E0E5E0F9E00C94BF2F2596E2E00C9405
:10121000DB2FA6E0B0E0EFE0F9E00C94BF2F2696BC
:10122000E2E00C94DB2F089508950E9414090895BC
:101230000E94150908950E94180990931D02809339
:101240001C0208950E941B09089520911C023091F0
:101250001D02822B932B0E941B09089520911C02D2
:1012600030911D02822393230E941B09089520912F
:101270001C0230911D02822793270E941B090895AA
:101280000E94140908950E94400990931B028093C4
:101290001A02089580E090E00E944309089521E039
:1012A00030E0A90102C0440F551F8A95E2F7CA0138
:1012B0000E944309089521E030E002C0220F331F4D
:1012C0008A95E2F780911A0290911B02822B932B50
:1012D0000E944309089521E030E002C0220F331F2D
:1012E0008A95E2F72095309580911A0290911B0221
:1012F000822393230E944309089521E030E002C035
:10130000220F331F8A95E2F780911A0290911B02F7
:10131000822793270E944309089520911A02309151
:101320001B02822B932B0E944309089520911A02DD
:1013300030911B02822393230E9443090895209138
:101340001A0230911B02822793270E9443090895B5
:101350000895962F9770A1E001C0AA0F9A95EAF719
:1013600093E0769567959A95E1F7660F771F660F7C
:10137000771FFA01E60FF71F40E050E0682F70E09A
:1013800090819B01042E02C0369527950A94E2F7BE
:101390002170219529272A23292721934F5F5F4F09
:1013A0004430510569F70895FB01782F777023E0E9
:1013B000969587952A95E1F7880F991F880F991FB1
:1013C000E80FF91F40E050E080E0219130E0072E67
:1013D00002C0369527950A94E2F721703327042E30
:1013E00001C0220F0A94EAF7822B4F5F5F4F44300F
:1013F000510559F70895282F9A3070F4873060F41A
:10140000862F622F70E027E0929F600D711D1124DE
:1014100046EF51E00E94A90908959A3070F4873090
:1014200060F4292F90E066EF71E037E0239F800D94
:10143000911D11240E94D409089580E00895A0E030
:10144000B0E0E5E2FAE00C94B82F7C0100911A02BA
:1014500010911B0280911C0290911D02082B192BE8
:10146000CFE0D0E0CC24C394D12CC6010C2E02C016
:10147000880F991F0A94E2F780239123892B21F486
:10148000219798F7B12C07C0BC2EB7018C2F0E9472
:10149000E5100197A9F38B2DCDB7DEB7E9E00C94E9
:1014A000D42FCF93DF93EC010E941F0ABE010E944C
:1014B000E510DF91CF9108951F93CF93DF93EB0158
:1014C0009091F501992321F0CB010E94510A13C09C
:1014D000882349F0CB010E941F0A182F682FCE01E4
:1014E0000E94FB0904C0CB010E940D0A182FBE0107
:1014F000812F0E94E510DF91CF911F9108951F93D6
:10150000CF93DF93C0911E0216E080911F02C8178F
:1015100099F0D0E01C9FF0011D9FF00D1124E05EBA
:10152000FD4F4081518162817381848195810E9448
:1015300009092196C770E9CFDF91CF911F910895D6
:1015400040915002509151026091520270915302A9
:1015500080915402909155020E94090908950F93B9
:101560001F93CF93DF938091550282958F7009F07E
:101570005AC080915202882309F455C080911E02FE
:1015800010911F026091500270915102C09153025C
:10159000D091540291E06F3F09F090E0292F06E0CE
:1015A000811709F440C0209721F07F3F21F030E0FF
:1015B00003C031E001C0322F90E030FD31C0089F00
:1015C000F001099FF00D1124DF01A05EBD4F1196BF
:1015D0003C911197371324C03C91361321C01296C9
:1015E0003C91129731111CC013964D915C91149748
:1015F0004C1B5D0B483C510598F4809155028F704F
:10160000806180935502EB5DFD4F80818F7080611A
:10161000808380E592E00E9479080E947F0A03C0DF
:1016200001968770BDCFDF91CF911F910F910895E3
:10163000A1E1B0E0EEE1FBE00C94B62F8C0185E077
:10164000F801DE011D9601900D928A95E1F7F801EF
:10165000E2809091500260915102209153023091AA
:1016600054022115310531F06F3F31F481E09F3F85
:1016700019F403C081E001C080E0F82FF1709F2EC3
:1016800080FD40C1F80140815181A380B48080E594
:10169000C82E82E0D82EF0905202F501E21BF30B27
:1016A000FF2009F4DAC080915502E83CF10508F00A
:1016B00096C0282F207F09F053C0561313C049133A
:1016C00011C0FE2CE1100EC08F7080618093550216
:1016D0000E94A00AC6010E94790880915502F80173
:1016E00085834DC1A114B10431F05F3F31F481E035
:1016F0004F3F19F403C081E001C080E080FD03C0CA
:1017000081E08E2502C080E090E0F82FF170FF2E7E
:1017100080FF1CC080911E0220911F0236E08217BC
:1017200009F40BC190E0389FF001399FF00D1124AE
:10173000E05EFD4F6181561306C06081461303C011
:101740006281E61203C001968770E9CFFE2CEE207D
:1017500009F415C18091550281608093550254C0EF
:10176000561306C0491304C0E11002C0F80199C025
:10177000C8010E94E408882361F1EE2051F1209114
:101780005502822F82958F7090E0029774F08091BD
:1017900050029091510298878F831986BB86AA8642
:1017A0002C87CE0107960E94790886E0F801A0E513
:1017B000B2E001900D928A95E1F70E94AF0A0E9473
:1017C000A00A0AC0561711F1C8010E94E40881114D
:1017D0002CC0C8010E947908FF24F394D0C0282FA0
:1017E000207F81F77A2DB98AA88A6E2D89890E9477
:1017F000FF0880E592E00E94790886E0F6011192E8
:101800008A95E9F70E94A00AF12CB9C04913DCCFF0
:10181000E110DACFF8018583C8010E94790886E0DB
:10182000F60111928A95E9F7AAC0EE2091F2209173
:101830005502822F82958F7090E002970CF4B5CFFD
:1018400080915002909151029A8389831B82BD82BC
:10185000AC822E83CE010196A6CFE83CF10508F0BC
:1018600044C0FE2CEE2009F4B4CF561330C0491307
:101870002EC02091550220FD21C0822F82958F70AD
:10188000482F50E041155105C9F0F80125834F302C
:10189000510541F08F5F982F9295907F822F8F7026
:1018A000892B8583C8010E94790886E0F801A0E5AC
:1018B000B2E001900D928A95E1F73CC086E0F80114
:1018C000A0E5B2E001900D928A95E1F758C0C801F9
:1018D0000E94E408811169CF809155028160809354
:1018E0005502C8010E9479084AC07A2DB98AA88A8F
:1018F0006E2D89890E94FF0886E0F60111928A9573
:10190000E9F718C0EE2009F464CFC8010E94E4088A
:10191000F82E882309F45DCF86E0F801A0E5B2E057
:1019200001900D928A95E1F780E592E00E9406050C
:101930000E94AF0A0E94A00A22C04D875E878D8553
:101940009E850E94510A292F22952F70223028F45B
:101950009F7039F0811105C00BC0243028F49F70AE
:1019600049F4805E883020F0C8010E9479089F2CDD
:10197000F92C05C0F8019581907F99F7F9CF8F2D4B
:101980006196EBE00C94D22FACE0B0E0EAECFCE026
:101990000C94BE2F4F83588769877A878B879C87E3
:1019A000CE0107960E94180B8823D1F09F8188856D
:1019B0002A853B85232B31F08F3F31F481E09F3F17
:1019C00019F403C081E001C080E080FD47C04F8171
:1019D000588569857A858B859C850E9409093EC05A
:1019E00086E0FE013796DE01119601900D928A95F0
:1019F000E1F7FF81E8856A857B856115710531F026
:101A0000EF3F31F481E0FF3F19F403C081E001C0F2
:101A100080E080FD23C020911F0230E0C9010196C3
:101A20008770992740911E0250E084179507F1F1C5
:101A3000F983EA837D836C8396E0929FD001939F24
:101A4000B00D1124A05EBD4FFE01319601900D92A4
:101A50009A95E1F780931F020E947F0A16E0809119
:101A60001E0290911F02891771F1189FC001112465
:101A7000805E9D4F0E94180B882329F1E0911E0281
:101A80001E9FF0011124E05EFD4F40815181628173
:101A90007381848195810E94090980911E0290E0E2
:101AA00001968770992780931E02D9CF0E94C4089F
:101AB00010921F0210921E02E0E5F2E086E0DF01C4
:101AC0001D928A95E9F72C96E3E00C94DA2F809129
:101AD0005E02859585958595089580915E02877053
:101AE000089590915E02977081E009F480E0089576
:101AF00080916902089590916902892B809369020F
:101B000008958095909169028923809369020895D0
:101B100010926902089590916802892B809368025F
:101B200008958095909168028923809368020895B2
:101B300010926802089580915F02089508950E94AE
:101B40009E0D08950E949F0D08959091310392FF7C
:101B500008C090915F02981721F080935F020E9465
:101B6000A20D089580915F02882329F010925F02F0
:101B700080E00E94A20D0895CF93DF93E0910401CD
:101B8000F0910501809169028083E0910401F09158
:101B90000501908180916802892B808380915F028A
:101BA000882381F0E0910401F09105019081892B57
:101BB000808380910401909105010E94EB268111A0
:101BC0000E94B20DC0910401D091050148E050E09F
:101BD00066E572E0CE010E944F30892B59F088E013
:101BE000FE01A6E5B2E001900D928A95E1F7CE01E3
:101BF0000E948826DF91CF9108950E949E0D08953E
:101C00009091310392FF11C098E0899F90011124B7
:101C1000262B20935E020E945B0980915E028595CF
:101C2000859585950E94FD0D08950E945B09089594
:101C300010925E0280E00E94FD0D089520915E02E8
:101C40008095822380935E02982F977099F430E0FC
:101C5000482F082E000C550B2417350759F090918A
:101C6000310392FF07C08595859585950E946B0984
:101C70000E94180E08959091310392FB222720F9BB
:101C8000281769F080FB92F990933103809130031B
:101C9000909131030E94830E82E00E941E0E0895EF
:101CA0008091310382FB882780F991E089270E9487
:101CB0003B0E089581E00E943B0E089580E00E9453
:101CC0003B0E08956FEF7FEF80E090E00E94973029
:101CD000089580E090E00E94733021E0873E9E4F9F
:101CE00009F020E0822F089582E090E00E946530A4
:101CF000089583E090E00E946530089584E090E0CC
:101D00000E9473300895BC0184E090E00E949730F7
:101D10000895AB01BC018FE090E00E948B300895E4
:101D2000AB01BC0183E190E00E948B30089560E03C
:101D300070E0CB010E94900E089560E070E0CB014E
:101D40000E94890E0E94970E089567EE7EEF80E054
:101D500090E00E94973060E082E090E00E9479304D
:101D600060E083E090E00E94793010921D021092B2
:101D70001C0260E074E184E090E00E94973060E033
:101D800086E090E00E9479306FEF87E090E00E945B
:101D9000793040E050E0BA0188E090E00E948B305A
:101DA00060E08DE090E00E94793040E050E0BA01C0
:101DB00088E190E00E948B3060E087E190E00E9433
:101DC000793040E050E0BA018CE190E00E948B3025
:101DD00060E070E080E290E00E94973040E050E0E8
:101DE000BA0188E190E00E948B300E949D0E089518
:101DF0000E94A50E0895682F8EE090E00E94793031
:101E000008950E94FD2760937A0270937B0280936D
:101E10007C0290937D0260937602709377028093A8
:101E200078029093790208950E94E213089508952C
:101E30000E94170F08950E94170F08950E941B0F0C
:101E400008950E94170F08950E94210F08950E947F
:101E5000170F089584E192E10E946A260E94270FDD
:101E60000E94240F08950E94180F0E94170F0895D2
:101E70000E9417120E94990408950E94E8270E9468
:101E8000C9110E94FD130E9445130E94380F0E9441
:101E900063210E94A61F0E9407140E941E0F08952E
:101EA000AAE0B0E0E6E5FFE00C94B72F0E946A13C9
:101EB0008CE6E82E82E0F82E670100E0F601119131
:101EC0006F01802F0E94351281270F5F0A3019F0B1
:101ED0008823A1F322C0811120C00E94F1278C0128
:101EE00080916A0290916B020817190709F450C09B
:101EF0008FEF89838A831B820E94F1278160782F6C
:101F00009D838C8349815A816B818D810E94C50498
:101F100010936B0200936A023BC080917E0281FDA8
:101F20000E943B120E94140FA82E10E0812F0E94E5
:101F30003512B82EF701C080C82611F100E0DD246B
:101F4000D3948C2D8D21B1F0AA20A1F00E831F8394
:101F500091E08B2D8D2109F490E098870E94F12764
:101F60008160782F9A8789874E815F8168858A850D
:101F70000E94C5040F5FDD0C073019F7F701B0822E
:101F80001F5FFFEFEF1AFF0A1A3081F60E94010F60
:101F90000E94E2130E94DE1F0E94E0170E94AC0420
:101FA0002A96EAE00C94D32FCF93DF930E94EA1095
:101FB000EC01811520E59207E0F5811530E49307E7
:101FC00008F09FC0803E910528F58D3C910508F0F2
:101FD00096C0883A910570F4853A910508F085C05D
:101FE0008130910509F47EC008F4DCC0049708F044
:101FF000DCC0D8C0813C910508F0D4C0C85AD0E0FC
:10200000CC0FDD1FC058DE4F0990D881C02DCE0106
:102010009464CCC0811540E2940708F0B8C08115E3
:1020200051E0950708F0C1C0883E910508F4BDC095
:10203000B9C0803662E5960720F5803472E59707CF
:1020400008F06CC0C03282E5D80708F05EC0C11548
:1020500092E5D90708F489C02C2F2695269560E2D1
:10206000269F90011124C37081E090E002C0880F88
:10207000991FCA95E2F7E901C82BD92BCE019D68BB
:1020800095C0803A22E59207E0F48F71C03832E5BE
:10209000D30708F059C08695869570E2879F900116
:1020A00011249C2F9370C1E0D0E0AE0102C0440F18
:1020B000551F9A95E2F7EA01DA68C9018C2B9D2B2E
:1020C00075C0803C42E5940708F445C0803E9245C7
:1020D00008F068C0CF71DD27DC2FCC27CE01806FE0
:1020E000906A64C081E090E061C0C55AD0E0CE54EF
:1020F000DE4F8881C82FD0E0CE01906457C0906534
:1021000055C0DF70CE01906A51C0CF718C2F90E026
:10211000D82FCC27CE01816F906A48C08F718695E9
:10212000869570E2879FA00111249C2F937021E077
:1021300030E0B90102C0660F771F9A95E2F7CB0134
:102140009C68842B952B32C090E0D82FCC27CE01F1
:10215000846F906A2BC08F710E9486118F7190E0FE
:10216000D82FCC27CE01906221C08C2F8F710E9476
:10217000861195E0D695C7959A95E1F7CF70D0E096
:10218000DC2FCC27D069BE01682BCB010FC08D2F6F
:102190008F710E948611DD27D0628F719E01382BCE
:1021A000C90104C080E090E001C0CE01DF91CF9171
:1021B00008957A3038F4673028F4462F672F0E944C
:1021C000AA03089580E090E008950E94D9100E942B
:1021D000D40F08958238910569F1B0F481339105E7
:1021E00009F475C048F48932910509F467C08A3250
:1021F000910509F471C008958533910509F459C01A
:1022000089339105B9F00895833E910589F138F439
:10221000803E9105D1F0823E910529F10895863ED8
:102220009105C9F1873E9105D9F1843E910509F0E8
:102230006CC027C02091300320FD57C021FD55C040
:102240002091310323FD5BC008958091300380FD10
:1022500048C08091310380FF48C08091300384FDE5
:1022600046C083EE51C08091300382FF3CC0F5CF61
:102270008091300382FD37C08091310380FD35C0ED
:10228000ECCF8091310381FF36C08091300384FD13
:102290002EC087EE39C08091300383FF2AC0F5CF6E
:1022A0008091300383FD25C08091310381FD23C0DF
:1022B000ECCF8091300385FD22C01FC08091300398
:1022C00085FD1BC08091310383FF19C00AC0809136
:1022D000300386FD16C017C08091300386FD13C001
:1022E00010C089E311C082EE0FC080EE0DC080E007
:1022F0000BC086EE09C084EE07C085E305C089E205
:1023000003C08AE201C081E390E008959091300318
:1023100092FF0DC0282F2871283019F4877F846020
:1023200006C0282F2471243011F48B7F886093FF1E
:102330000DC0282F2871283119F4877E846106C0CA
:10234000282F2471243111F48B7E88612091310370
:1023500020FF0DC0382F3871383019F4877F816025
:1023600006C0382F3171313011F48E7F886021FF23
:102370000DC0282F2871283119F4877E816106C08D
:10238000282F2171213111F48E7E886194FD877E82
:10239000089510922C0310922D0310922E03109288
:1023A0002F030895CF92DF92EF92FF926B017C0191
:1023B0000E94E21381110EC00E94FD27C61AD70A9F
:1023C000E80AF90AC0922C03D0922D03E0922E0362
:1023D000F0922F03FF90EF90DF90CF9008950F932E
:1023E0001F930E94E213882319F00E94FD270EC05C
:1023F0000E94FD2700912C0310912D0320912E03A4
:1024000030912F03600F711F821F931F1F910F9137
:1024100008950E94E213882319F00E94F12708957D
:102420000E94EF11CB01089580E0089508950E9465
:10243000690E811102C00E94F80E0E94740E8093F2
:102440007E020E947E0E90933103809330030E949F
:1024500016120E94790E90E00E94220980911A02C1
:1024600090911B020E9440090895E82FF0E0E35C80
:10247000FC4F80810895089580EA8A95F1F70895C8
:1024800000C008950E943C12089508950E944512CC
:1024900008950E94461208950E94451208950E94D0
:1024A0004C1208950E9445120895A5E0B0E0EBE5B6
:1024B000F2E10C94BC2F0E94E21360914703882341
:1024C000E9F185E0F82E8E010F5F1F4FF8018F2D87
:1024D00011928A95E9F7862F90E0B801835C9C4FB2
:1024E0000E941514882389F08091320390E045E022
:1024F00050E0B801835C9C4F0E944F3021E0209354
:102500007F02892B61F410E016C080917F0288233E
:10251000D1F3F8011192FA94E9F710927F02A09199
:102520003203B0E0A35CBC4F85E0F80101900D924E
:102530008A95E1F711E00E94FF030DC070E0635C33
:102540007C4F8091320390E0835C9C4F0E949E14EC
:102550000E94521210E0812F2596E5E00C94D82FAE
:10256000F894E82FE295EF70F0E031A1282F2F705A
:1025700081E090E001C0880F2A95EAF7982F9095A6
:10258000932391A392A1892B82A3789408950F930A
:102590001F93CF93DF93CCEBD1E089918F3F11F064
:1025A0000E94B01281E0C13CD807B9F7C5EBD1E079
:1025B0000CEB11E089918F3F11F00E94B0120C17C3
:1025C0001D07C1F7DF91CF911F910F910895A0E0F2
:1025D000B0E0EDEEF2E10C94B92F8C01C62FD0E003
:1025E000CE0184549E4F7C01FC0190819F3F09F4F1
:1025F00047C0D62EF894E92FE295EF70F0E081A164
:102600009F7021E030E001C0220F9A95EAF7822BFB
:1026100081A382A12095282322A378940E944012AE
:10262000E5EBF1E04CEB51E031E0C12C21912F3F83
:1026300089F0A22FA295AF70B0E090968C9190E0B7
:102640002F7002C0959587952A95E2F780FD02C00C
:10265000832F01C080E0C82A330F4E175F0731F780
:10266000F70180818F3F11F00E94B01261E0C1102C
:1026700001C060E08D2D0E944212C00FD11FC882A0
:10268000CDB7DEB7E8E00C94D52F8091060180919C
:102690000601811102C095E001C090E090934703CC
:1026A00085E0891B809332030E94C7128AE0EDE324
:1026B000F3E0DF01982F1D929A95E9F7E3E3F3E049
:1026C000DF011D928A95E9F785E00E94A8130E9418
:1026D000FC030895AAE0B0E0E0E7F3E10C94BC2F1E
:1026E0008E010F5F1F4F8AE0F80111928A95E9F77A
:1026F000F12C6F2DC8010E94E712F394F5E0FF1250
:10270000F8CF4AE050E0B80183E393E00E944F30F5
:1027100021E0009709F420E0892B41F08AE0F801DC
:10272000A3E3B3E001900D928A95E1F7609147032E
:1027300070E0635C7C4F45E083E393E00E94A91363
:10274000182F0E945512812B2A96E5E00C94D82F61
:102750000895EF92FF920F931F93CF93DF937C0125
:102760008B01C42F222349F081E0809382020E94D2
:10277000F1279093810280938002809182028111DF
:1027800002C080E01AC080918002909181020E9474
:1027900009280597B0F3D0E0AE01B701C8010E9447
:1027A0004F30892B39F0AE01B701C8010E945C306F
:1027B00081E001C080E010928202CDB7DEB7E6E092
:1027C0000C94D72F8091850281110DC00E94072F94
:1027D000811102C082E001C081E0809385028230D5
:1027E00011F40E94022F81E090918502913009F04E
:1027F00080E008950E94E21308950E94FA138093E6
:1028000006010E94E21381110E944D1408950E9456
:10281000E213811102C00E945014089581E090914A
:1028200086029A3008F080E008950F931F93CF93AB
:10283000DF93EC018B01809186028A3038F4B80175
:10284000CE010E949B1481111DC00AC08091830299
:10285000909184020E940928843F914080F715C01E
:10286000809186028F3F19F08F5F8093860280915E
:1028700086028A3060F00E94F12790938402809350
:10288000830203C01092860202C080E001C081E092
:10289000DF91CF911F910F9108950E940425089513
:1028A0000E9407250895A0E0B0E0E9E5F4E10C946A
:1028B000BA2F7901C82F880FDD0B41155105A9F0FA
:1028C000FE0193E0EE0FFF1F9A95E1F7E95FFE4FDF
:1028D0008181928189579D4F208130E042175307B3
:1028E00008F49A01A9010E945C30CE010E94EF25F4
:1028F000D82E8823D1F001151105B9F083E0CC0F53
:10290000DD1F8A95E1F7FE01E95FFE4F438150E04C
:102910000417150708F4A801C95FDE4F6C817D819B
:1029200069577D4FC7010E945C308D2DCDB7DEB752
:10293000E7E00C94D62F0E94CE1508950E94EF1563
:102940000895A4E0B0E0E7EAF4E10C94BD2F6091B3
:10295000A6027091A7028091A8029091A9020E94FC
:102960001828643671058105910528F10E94EF1140
:10297000DC01CB010296A11DB11D89839A83AB8333
:10298000BC8300E010E020E030E044E050E0BE0115
:102990006F5F7F4F82E00E945314182F882361F0ED
:1029A0000E94FD276093A6027093A7028093A8025D
:1029B0009093A90201C011E0812F2496E4E00C94C9
:1029C000D92FA0E0B0E0E7EEF4E10C94B72F7C0142
:1029D0005B016A010E940E14811103C001E010E046
:1029E00002C00AE010E0C1E0D0E0B501C701F60185
:1029F0000995811115C021960C171D0794F0CC9FE5
:102A00009001CD9F300D300D112480E090E045E322
:102A10004A95F1F70000019682179307C1F7E5CFB9
:102A200081E0CDB7DEB7EAE00C94D32FA8E0B0E0A8
:102A3000ECE1F5E10C94BD2FCE0101960E949F1EA2
:102A400018856091AA027091AB028091AC029091BE
:102A5000AD020E941828643671058105910510F4B5
:102A60001123D9F000E010E020E030E048E050E031
:102A7000BE016F5F7F4F83E00E945314882359F09B
:102A80000E94FD276093AA027093AB028093AC0270
:102A90009093AD0202C080E003C00E949C1E81E0C2
:102AA0002896E4E00C94D92FA6E0B0E0EAE5F5E141
:102AB0000C94B72F7B01C090C101D090C20101E0FE
:102AC00010E09E012A5F3F4F40E050E060E070E080
:102AD00080E00E945314182F882309F43EC0560149
:102AE0008FEFA81AB80A6091A2027091A302809198
:102AF000A4029091A5020E941828643671058105F0
:102B0000910518F105E010E09E012F5F3F4F40E076
:102B100050E060E070E081E00E945314182F65E0FF
:102B200070E0C5010E94642191E02E81281390E09D
:102B3000192339F10E94FD276093A2027093A3022A
:102B40008093A4029093A50211C065E070E0C501D6
:102B50000E9464219E818913D5CF85E0F6013196CC
:102B6000DE01119601900D928A95E1F7112349F04B
:102B700085E0FE013196ADE9B2E001900D928A95B3
:102B8000E1F785E0EDE9F2E0D70101900D928A9539
:102B9000E1F7812F2696EAE00C94D32F0F931F9331
:102BA000CF93DF93EC018B0144E555E10E94E114E2
:102BB000811102C080E00EC041EA54E1B801CE01AB
:102BC0000E94E1148823B1F346E155E1B801CE013A
:102BD0000E94E114DF91CF911F910F910895A8E019
:102BE000B0E0E5EFF5E10C94B92F0091C10110912F
:102BF000C201C801019625E0FB01DC0101900D92A4
:102C00002A95E1F765E070E00E946421F801808375
:102C10006681778180859185C0909902D0909A02D3
:102C2000E0909B02F0909C026C157D058E059F053F
:102C300051F06093990270939A0280939B02909353
:102C40009C020E94D21188E0F8013A96DE011196AA
:102C500001900D928A95E1F7F801118A8885882301
:102C600029F060E0CE0101960E94711F2896E8E0ED
:102C70000C94D52F0E94D5290E943D0F0E94E22975
:102C800008950E94E7290E94500F0E94012A08958A
:102C90000E9488270E94BB290E942A0F0E943A1690
:102CA0000E9441160E94330FFBCF8091B40280FF37
:102CB00006C060912C0170E0660F771F26C081FF6F
:102CC00004C060912C0184E005C082FF07C06091C0
:102CD0002C0188E0689FB001112417C09091B302C5
:102CE0009923D1F060912B01961788F720912C0140
:102CF00088E0289F90011124929FA001939F500D7E
:102D0000112470E0CA010E94422F6038710540F41E
:102D10006115710519F406C068E070E0862F08950A
:102D20008FE7089581E008958091B40280FF08C084
:102D30006091280170E0759567957595679521C03C
:102D400081FF06C06091280170E07595679519C0F4
:102D500082FF04C06091280170E010C09091B2021F
:102D6000992399F0609127019617A0F78091280187
:102D7000899FC001112470E00E94422F60387105C4
:102D800040F46115710519F406C061E070E0862F0A
:102D900008958FE7089581E008958D3C21F40E9405
:102DA0005516819504C08E3C29F40E9455168093D7
:102DB000B80208958F3C21F40E945516819504C0F5
:102DC000803D29F40E9455168093B7020895893DED
:102DD00019F40E94941605C08A3D31F40E9494169D
:102DE00081958093B90208958B3D21F40E94941639
:102DF000819504C08C3D29F40E9494168093BA02F8
:102E000008959FE2980F983078F421E030E0A9010E
:102E100002C0440F551F9A95E2F7CA019091B6027D
:102E2000892B8093B60208958D3D21F48091B402E0
:102E300081600BC08E3D21F48091B402826005C098
:102E40008F3D29F48091B40284608093B402089588
:102E50008D3C39F49091B80297FF35C01092B802BA
:102E600059C08E3C29F49091B8021916BCF32BC0BE
:102E70009091B7028F3C29F497FF25C01092B702BA
:102E800049C0803D19F41916CCF31DC09091B902C8
:102E9000893D29F41916BCF41092B9023BC08A3D51
:102EA00019F497FF10C0F8CF8B3D39F49091BA0216
:102EB00097FF09C01092BA022DC08C3D21F4909169
:102EC000BA021916BCF39FE2980F983080F421E003
:102ED00030E0A90102C0440F551F9A95E2F7CA01DC
:102EE00080959091B60289238093B60213C08D3DE0
:102EF00021F48091B4028E7F0BC08E3D21F480912D
:102F0000B4028D7F05C08F3D29F48091B4028B7F80
:102F10008093B4028091B702811106C08091B802FB
:102F2000811102C01092B3028091B902811106C0D2
:102F30008091BA02811102C01092B20208950E94DB
:102F4000F1272091B702211104C02091B802222359
:102F500021F09093B1028093B0022091B902211127
:102F600004C02091BA02222321F09093AF028093F3
:102F7000AE0285EB92E00E9493260895E5EBF2E025
:102F800086E0DF011D928A95E9F71092B302109254
:102F9000B2021092B4020895FC01828181110DC029
:102FA000838181110AC08481811107C091E08581EC
:102FB000811101C090E0892F01C081E081700895E6
:102FC000A6E0B0E0E6EEF7E10C94BE2F86E0E5EB7C
:102FD000F2E0DE01119601900D928A95E1F71092D0
:102FE000B7021092B8021092B9021092BA028B8105
:102FF000811104C08C81882309F45FC08091B002E4
:103000009091B1020E940928AC019091B3029923DA
:1030100039F020912D0130E02417350758F04DC0CC
:1030200020912E018AE0289F900111242417350752
:1030300018F043C09F3F19F09F5F9093B3021B812C
:10304000112361F00E945516111614F09FEF01C074
:1030500091E0989F902D11249093B7021C81112329
:1030600061F00E945516111614F09FEF01C091E017
:10307000989F902D11249093B8023091B70233237A
:10308000E1F02091B8022223C1F045EB3403C001E6
:103090001124992319F09093B70203C081E0809323
:1030A000B70235EB2303C0011124992319F0909343
:1030B000B80203C081E08093B8028D81811104C001
:1030C0008E81882309F45FC08091AE029091AF0297
:1030D0000E940928AC019091B202992339F0209105
:1030E000290130E02417350758F04DC020912A01FE
:1030F0008AE0289F900111242417350718F043C057
:103100009F3F19F09F5F9093B2021D81112361F0E0
:103110000E949416111614F09FEF01C091E0989F41
:10312000902D11249093B9021E81112361F00E9409
:103130009416111614F09FEF01C091E0989F902D06
:1031400011249093BA023091B9023323E1F0209117
:10315000BA022223C1F045EB3403C00111249923A4
:1031600019F09093B90203C081E08093B90235EB66
:103170002303C0011124992319F09093BA0203C0CC
:1031800081E08093BA02BE016F5F7F4F85EB92E0D2
:103190000E943A27811105C085EB92E00E94CC176E
:1031A00081110E949F1786E0FE013196A5EBB2E0E7
:1031B00001900D928A95E1F72696E3E00C94DA2FC0
:1031C000EF92FF920F931F93CF93DF938B01682FA2
:1031D00011110AC0442329F0E82FF0E0E256FB4F1A
:1031E0006491762F862F75C0212F30E0E82FF0E014
:1031F000442321F0E256FB4FE491F0E046E0049FC7
:10320000C0011124CFEFD0E0BE010E942E2F4BEA67
:103210004603C001479F900D1124800F911D800F20
:10322000911D982F990F890FAE01421B530B4E9F92
:10323000D0014F9FB00D5E9FB00D11249B2F189FA2
:10324000A0011124452F55278E01041B150B0E9F3D
:10325000A0010F9F500D1E9F500D11247E01E81AF2
:10326000F108E29E8001E39E100DF29E100D1124E4
:10327000212F3327C21BD30BCE9F9001CF9F300D40
:10328000DE9F300D112462307105A9F048F46115FC
:10329000710569F061307105C9F48B2F752F0DC070
:1032A0006430710581F058F06630710579F47E2F35
:1032B0008B2F932F0DC0832F7B2F9E2F09C08E2F16
:1032C0007B2F952F05C08E2F732F02C07E2F852F49
:1032D000692FCDB7DEB7E6E00C94D72F41E00E940E
:1032E000E018089508950E946E190895CF93DF9312
:1032F000762FE901682F842F0E94731979836883E0
:103300008A83DF91CF91089580914803282F2695D5
:1033100030E02115310519F48170826005C02B322F
:10332000310524F08170846580934803089588E016
:1033300090E00E946D300895CF92DF92EF92FF925D
:103340006B017C010E948419B701A60188E090E01E
:103350000E948B30FF90EF90DF90CF900895E8E4CB
:10336000F3E083E0808311828FEF82838383148272
:10337000AEE0B3E012968C911297836012968C9314
:1033800060817181828193810E949C19089580914E
:10339000480380FF02C08695089580E008959091CB
:1033A0004C03933018F49F5F90934C03882351F0A3
:1033B000609148037091490380914A0390914B03B7
:1033C0000E949C19089581E00E94CF190895909160
:1033D0004C03992319F0915090934C03882351F09A
:1033E000609148037091490380914A0390914B0387
:1033F0000E949C19089581E00E94E719089570E0E9
:103400000E9438210895609133018091480380FF24
:103410000BC08091320123E0829FC0011124835BA5
:103420009C4F0E94FF1908958091340190913501BD
:10343000891778F7E82FF0E09F01220F331FE20F82
:10344000F31FE35BFC4F1182108212828F5FF0CF7B
:103450009091480390FF16C090913401209135015E
:10346000921770F4E92FF0E0DF01AA0FBB1FEA0FFB
:10347000FB1FE35BFC4F8183608342839F5FF0CF40
:103480000E94031A0895A3E0B0E0E9E4FAE10C9485
:10349000BF2F9091480390FF0AC09E012F5F3F4FBE
:1034A0000E9476194B8169818A810E94281A23968D
:1034B000E2E00C94DB2FCF93DF93EC01EC81F0E0A2
:1034C000E756FC4F4491E8E4F3E0628181810E9479
:1034D000431A8C818F5F8C83DF91CF910895CF93B6
:1034E000DF93EC01E8E4F3E0438162818C810E9488
:1034F000431A8C818F5F8C83DF91CF910895A3E075
:10350000B0E0E5E8FAE10C94BD2F8C018091BB029C
:1035100081110AC09E012F5F3F4F4FEF6FEF0E9456
:1035200076198A818093BB02F8018481813051F041
:1035300028F0823061F44091BB020AC08091BB0246
:1035400040E007C06091BB0240E080E003C040E083
:1035500080E060E00E94281AF801848190E00196E2
:1035600063E070E00E94422F84832396E4E00C9491
:10357000D92FA3E0B0E0EFEBFAE10C94B82F082FBD
:10358000E62EF42ED22E9091480390FF79C0209120
:103590004903281308C080914A03861304C0809110
:1035A0004B03841729F080911003826080931003ED
:1035B000E92FE695AE2FB0E0AD53BE4F8C918093CE
:1035C0000E039E7F923071F49E012F5F3F4F4F2D6F
:1035D0006E2D802F0E9476194B8169818A810E940D
:1035E000281A3CC0823019F4F0904B0337C0863063
:1035F000A1F1893091F1893189F5E9518E2F8170DE
:10360000C82EE695F0E0E756FB4F1491B12C60917F
:103610003601B616F8F4B19EC001112470E00E9484
:103620002E2F802FC11002C0860F01C0861B9091E3
:1036300034012B2D30E0290F311DA901440F551FF6
:10364000240F351F235B3C4F4F2D6E2D0E947619A2
:10365000B394DDCF0E94031A01C0022F00934903E7
:10366000E0924A03F0924B03DD2051F06091480351
:103670007091490380914A0390914B030E949C19D9
:103680002396E9E00C94D42FE8E4F3E09181282F0D
:103690004381628188E0890F0E94B91A089581E010
:1036A0000E94441B0895E8E4F3E09181282F4381B0
:1036B000628188EF890F0E94B91A089581E00E9403
:1036C000531B0895E8E4F3E0628128E0620F08F4F8
:1036D0006FEF282F438181810E94B91A089581E0FC
:1036E0000E94621B0895E8E4F3E0628128E0621B17
:1036F00008F460E0282F438181810E94B91A08955F
:1037000081E00E94731B0895E8E4F3E0438128E020
:10371000420F08F44FEF282F628181810E94B91A6D
:10372000089581E00E94841B0895E8E4F3E043815A
:1037300028E0421B08F440E0282F628181810E942A
:10374000B91A089581E00E94951B089520E00E9417
:10375000B91A0895FF920F931F93CF93DF93EC0153
:10376000F12C0FEF10E060913601F616F0F4809125
:1037700034012F2D30E0280F311DC901880F991F0A
:10378000280F391F235B3C4F70E0C8010E94422F75
:10379000962F8C8140914B0360914A03F99E800DD6
:1037A00011240E947619F394DECF0E94031A9A81A5
:1037B0008C8190FF02C08F5F01C081508C83CDB798
:1037C000DEB7E5E00C94D82FA0E0B0E0EAEEFBE134
:1037D0000C94B52FEC018A8180FF03C0BB24BA94FE
:1037E00002C0BB24B3948C8181110DC081E0B8125A
:1037F00006C08091360181508093BD0202C01092B4
:10380000BD0281E08C83A12C4EE0942E8091360184
:10381000A81608F044C080913401CA2CD12C86012E
:10382000080F111DC801880F991F080F191F035B8E
:103830001C4FF80111821082128234E0E32EF12C29
:10384000812C8091BD02880D8F302CF0692D0E9453
:10385000202F892F05C087FF03C090913601890F63
:10386000082E000C990BC816D90691F480914B03D1
:103870008E9DA0018F9D500D11245595479555950E
:103880004795980160914A03809149030E947619F7
:103890008B0CF1E0EF1AF108A1F6A394B7CF0E94C8
:1038A000031A8091BD0291E0B9120EC0811107C0C8
:1038B0008091360181508093BD021C820FC08150DF
:1038C0008093BD02BC820AC090E0019660913601EF
:1038D00070E00E94422F8093BD028C83CDB7DEB78B
:1038E000ECE00C94D12F1F93CF93DF93EC018C81EC
:1038F000811109C081E08C831092BC0292E0909308
:103900003101809330018091340190913501891704
:1039100070F4E82FF0E09F01220F331FE20FF31F36
:10392000E35BFC4F1182108212828F5FF0CF10E0B8
:10393000609136011617C0F5E12FF0E070E0CF017D
:103940000E94422F20913401820F2091BC02022E4E
:10395000000C330B90E0E217F307CCF0209131011B
:10396000022E000C330B2E173F078CF09C01220F08
:10397000331F820F931F9C01235B3C4F40914B03ED
:1039800060914A03809149030E9476190BC0FC01A3
:10399000EE0FFF1F8E0F9F1FFC01E35BFC4F118298
:1039A000108212821F5FC4CF0E94031A80913001DF
:1039B0002091BC02280F2093BC0290913101980FF6
:1039C0009093310119165CF4022E000C330B4091D8
:1039D000360150E0415051092417350734F08195E4
:1039E00080933001813009F41C82DF91CF911F91C7
:1039F0000895A0E0B0E0EFEFFCE10C94B52F8C014E
:103A0000FC014481C42FD0E09E01DE010E94862F7C
:103A10009B01AC010E949C2F6B017C01E0E2F0E075
:103A2000EC1BFD0BA5E5B0E09B01AC010E949C2FB7
:103A30004B015C019F01DF010E947E2F9B01AC01C5
:103A40000E94A72F9B01AC012C0D3D1D4E1D5F1D3B
:103A5000C501B4010E94562FC22FD22F2A3228F45A
:103A6000F3E02F9F900111240DC025E530E02C1BC1
:103A70003109C901880F991F280F391F37FF02C06C
:103A80002F5F3F4F35952795C22FC095F12C85E5C7
:103A9000E82EED1A80913601F816C8F4F1FC02C048
:103AA0008E2D01C08D2F909134012F2D30E0290FE4
:103AB000311DA901440F551F240F351F235B3C4FB7
:103AC0004C2F60914A030E947619F394E3CF0E9431
:103AD000031AF8018481811102C091E003C0803291
:103AE00019F49FEF90932F0190912F01890FF80106
:103AF0008483CDB7DEB7ECE00C94D12F0F931F93E6
:103B0000CF93DF93EC0100E010E080913601282F85
:103B100030E00217130724F5909134019801290F22
:103B2000311DA901440F551F240F351F235B3C4F46
:103B3000869590E04C81081719071CF4442331F056
:103B400002C0411103C040914B0301C040E06091AD
:103B50004A03809149030E9476190F5F1F4FD5CF0A
:103B60000E94031A8C8190E00196817099278C83C2
:103B7000DF91CF911F910F9108952F923F925F9205
:103B80006F927F928F929F92AF92BF92CF92DF926D
:103B9000EF92FF920F931F93CF93DF93FC0162800C
:103BA000548081E08483E9E9F3E07490E8E1F4E093
:103BB000E491C0914B03C695C158D0E0CC0FDD1FF6
:103BC0002D2E3324812C75E0972EAA24AA94B12C93
:103BD000E719EE2EF12C80913601881608F098C076
:103BE000C82CD12C22E0261568F09C9CF0019D9CED
:103BF000F00D1124EF53FD4F809149038083809194
:103C00004A03818351100AC09C9CF0019D9CF00DD9
:103C10001124EF53FD4F1382128260C09C9C8001DF
:103C20009D9C100D1124E801CF53DD4F8B8188231B
:103C3000F9F081508B832FEF829FC00111246C819A
:103C400070E00E942E2FFB01FF27E756FC4F849166
:103C5000E82FE7192FEFE29FC0011124B7010E945E
:103C60002E2F80914B03689FB00111247A8336C0B8
:103C70000E943230B5010E94422F8215930574F5DF
:103C800082E0861588F40E943230B5010E94422FEE
:103C900088830E94323020914A032695622F70E07B
:103CA0000E94422F280F29839C9CF0019D9CF00DBF
:103CB0001124EF53FD4F128280914B03843120F089
:103CC000893C18F088EC01C084E19C9CF0019D9C2B
:103CD000F00D1124EF53FD4F8483838380913401D1
:103CE0009601280F311DC901880F991F280F391F10
:103CF000235B3C4F9C9CF0019D9CF00D1124EF53E5
:103D0000FD4F4281618180810E947619839463CF47
:103D10000E94031ADF91CF911F910F91FF90EF90B6
:103D2000DF90CF90BF90AF909F908F907F906F90DB
:103D30005F903F902F90089510921003089525E012
:103D4000E8E4F3E0DC0101900D922A95E1F720917F
:103D50000E0330910F0340911003FC01258336833D
:103D60004783089560914803669570E04BE050E00A
:103D700087E391E00E944230892B19F481E080931F
:103D80000F030E9409129093080380930703809108
:103D900010038460809310030895EEE0F3E0118235
:103DA00082818460828308959091480390FF3AC095
:103DB0009170811102C0926006C08B3210F0946540
:103DC00002C0880F982B9093480380911003816064
:103DD00080931003662351F060914803709149036A
:103DE00080914A0390914B030E949C196091480373
:103DF000669570E04BE050E087E391E00E9442302E
:103E0000892B19F00E94CD1E02C00E94B21E81E0D3
:103E100080930A0340914B0360914A0380914903C8
:103E20000E94A61B0895682F90914803969581E003
:103E3000890F8B3208F081E00E94D41E089581E042
:103E40000E94131F0895682F9091480396958FEF55
:103E5000890F09F48AE20E94D41E089581E00E942D
:103E6000231F089561E00E94D41E0895E8E4F3E062
:103E700080818160808386950E94321F089560E072
:103E80000E94D41E0895E8E4F3E080818E7F808351
:103E900060817181828193810E949C190E94CD1E54
:103EA000EEE0F3E08281816082830E94031A08952C
:103EB0008091480380FF03C00E94431F08950E9421
:103EC000361F0895E8E4F3E080818E7F80830E94AE
:103ED000CD1EEEE0F3E08281816082830E94031AAE
:103EE00008951F93CF93DF93EC01162F8F8180FFEE
:103EF0000FC0888180FF0AC0809148038160809351
:103F00004803888186950E94D41E02C00E94621FC9
:103F10008F8181FF06C0212F4B816A8189810E9498
:103F2000B91A8F8182FF08C08E81882319F00E9400
:103F3000B21E02C00E94CD1E8F8183FF03C081E0AC
:103F400080930A03DF91CF911F91089580910D0313
:103F5000811133C00E94690E811104C00E94F80EC5
:103F60000E94AF190E949719609348037093490308
:103F700080934A0390934B03809110038360809356
:103F800010036E7F61F40E94AF190E94971960932D
:103F900048037093490380934A0390934B030E9414
:103FA00084190E94CD1E8091480380FF03C086952E
:103FB0000E943F1F81E080930D030895EF92FF92CE
:103FC0000F931F93CF93DF9380910F03882309F4FE
:103FD000BCC080910E03E0914803E695E81BE09396
:103FE0000903823049F4F0E0EB56FC4FE491CE2F08
:103FF000D0E00BE51AE159C0863049F4F0E0EE5606
:10400000FC4FE491CE2FD0E00FE61AE14EC089308C
:1040100051F4E695F0E0E157FC4FE491CE2FD0E06B
:104020000AEA1BE142C08F3051F4E695F0E0E45714
:10403000FC4FE491CE2FD0E004EE1BE136C0853179
:1040400049F4F0E0E757FC4FE491CE2FD0E003E7CE
:104050001CE12BC08831D9F0833239F4E7E8F3E072
:10406000C591D4910FE71AE120C08432A9F08532BE
:10407000C1F48E2F63E00E94142FE92FF0E0EC577B
:10408000FC4FE491CE2FD0E00DEB1DE10EC0C8E255
:10409000D0E009EF1CE109C0C4EFD1E00EE71DE15B
:1040A00004C0C0EDD7E002E719E180910A0388233C
:1040B00061F010920A030E94091290930803809302
:1040C000070310920C0310920B030E940912E09157
:1040D0000703F09108039C012E1B3F0B2F3F3F4726
:1040E000A0F52091C0022223B1F01092C0022091CD
:1040F000BE023091BF02821B930B8F3F9F4758F443
:10410000205D3A483093BF022093BE028091100395
:10411000886080931003E0900B03F0900C03EC0F89
:10412000FD1FF0930803E093070387E093E0F80195
:10413000099580910B0390910C03892B31F4E114C4
:10414000F10419F081E08093C002CDB7DEB7E6E05C
:104150000C94D72F882311F0FA0101C0FB010995B7
:104160000895CF93DF93C82FD62F0E94C7198C17BD
:1041700038F00E94C7198D1718F40E941F1F03C042
:104180008C2F0E94321FDF91CF9108951F93CF9300
:10419000DF93FB011281111166C0EC010E94780DC2
:1041A0008272FE01E052F847E531F10508F05AC08D
:1041B000EE59FF4F0C94782F0E94581F54C04EE2C6
:1041C0005FE16FE17FE104C04FE15FE16EE27FE11B
:1041D0000E94AA2048C04EE55BE16FE47BE1F8CF86
:1041E0004FE45BE16EE57BE1F3CF40E85BE16FE636
:1041F0007BE1EECF4FE65BE160E87BE1E9CF42EAAD
:104200005BE161E97BE1E4CF41E95BE162EA7BE10B
:10421000DFCF4BEF59E163EE79E1DACF43EE59E1BD
:104220006BEF79E1D5CF81E015C065E082E017C082
:1042300068E086E014C06EE089E011C064E18FE0C0
:104240000EC067E185E10BC088E104C062E289E14C
:1042500006C083E20E94321F06C06AE285E20E9425
:10426000B12001C011E0812FDF91CF911F910895FE
:10427000539A2BB1277F3BB138604FB7F894FC01BC
:10428000CB01880F991F680F791F6E0F7F1FE617EC
:10429000F70789F0819198E03BB9000000C087FFE3
:1042A0002BB9880F000000C000C000C02BB900C0AF
:1042B0009A9591F7ECCF4FBF8FE594E00197F1F716
:1042C00000C0000008950895FC01680F791F8FEF6A
:1042D00091E3E617F70771F02191822728E030E09B
:1042E00087FF03C0880F892701C0880F215031093B
:1042F000B9F7EFCF0895CF93DF93FC01DB0112965E
:104300008C91882309F4DDC09F0130572332310599
:1043100008F0D8C0EF010E947E0E90933103809385
:104320003003FE01E150F047E232F10520F4E95894
:10433000FF4F0C94782F809130038160AAC0809148
:1043400031038860B2C0809130038260A2C0809146
:10435000300320C08091300388609BC0809131037E
:104360001EC0809131038260A0C0809130038061C3
:1043700090C08091300380628CC080913003806453
:1043800088C00E94C40880913003806882C08091F8
:104390003003886084607DC08091310382608160D9
:1043A00084C0809130038E7F74C080913103877FF9
:1043B0007CC0809130038D7F6CC08091300320C021
:1043C00080913003877F65C0809131031EC080914A
:1043D00031038D7F6AC0809130038F7E5AC08091F7
:1043E00030038F7D56C0809130038F7B52C00E9476
:1043F000C408809130038F774CC080913003877F51
:104400008B7F47C0809131038D7F8E7F4EC080911E
:10441000300382FB222720F991E0922790FB82F95A
:1044200090FB83F936C080913103982F909591705D
:104430008E7F892B90FB81F938C08091300386FBF9
:10444000222720F991E0922790FB86F922C00E9452
:10445000C4088091300387FB222720F991E092273E
:1044600090FB87F916C081E001C080E00E94FB0E3E
:104470001EC08091300384FB222720F991E092270F
:1044800090FB84F906C080913003982F909590FBA3
:1044900080F9809330030BC08091310383FB222786
:1044A00020F991E0922790FB83F98093310380916A
:1044B0003003909131030E94830E0E94C40880E073
:1044C00001C081E0DF91CF910895893289F1F0F444
:1044D000843171F1B0F4873009F077C081E08093C6
:1044E0002E0184E180932D018AE080932C018EE1DE
:1044F00080932B0188E08093280188E28093270134
:1045000064C092EE980F9A30F0F05FC0803509F4E5
:1045100044C028F48F3409F058C08AE03FC0813588
:1045200029F0823509F051C081E038C08FEF36C0E4
:1045300080911303882379F11092130310921203D0
:104540001092110342C08D5180931303833099F070
:1045500038F4813069F08230D9F48DE291E00DC0F9
:10456000853099F078F0863099F487E291E005C0C3
:104570008EE291E002C08CE291E09093120380936E
:10458000110323C08BE291E0F8CF88E291E0F5CFF0
:10459000109213031AC080E0089586EFE091110392
:1045A000F0911203309789F02081082E000C990BAE
:1045B000820F911D8F3F910519F014F08FEF04C009
:1045C00097FF02C0108201C0808381E008958B3183
:1045D00009F469C058F58B3009F490C078F486303E
:1045E00009F446C020F4853009F44CC08CC08730F3
:1045F00009F44BC0883009F481C085C0803109F4CA
:1046000065C068F48E3009F07EC080917E0282FB26
:10461000222720F991E0922790FB82F94DC0863144
:1046200009F46CC0893109F469C06DC08A32E9F0BF
:1046300060F4873209F464C028F48E3108F463C052
:104640008D514FC08932F1F05EC0833450F48A330B
:1046500008F046C0853309F453C0883309F44EC0CE
:1046600052C0833409F44CC04EC00E94F80E46C0BC
:1046700080917E02817F8E7F80937E0281E0809395
:10468000140308950E94110439C080917E02982F6E
:104690009095917090FB80F980937E0291112EC0CD
:1046A000897F877F10C080917E0281FB222720F9BD
:1046B00091E0922790FB81F980937E029923F1F09B
:1046C00080917E02816080937E0218C080917E027C
:1046D00083FB222720F991E0922790FB83F9ECCF0E
:1046E000895321E030E0A90102C0440F551F8A958B
:1046F000E2F7CA010E9422090E94C40881E00895DD
:1047000081E090E0F7CF80E0089580E008950E9476
:1047100085230895CF93C82F80911403813069F0C9
:1047200038F08230C1F58C2F0E94652281E039C0BB
:104730000E94780D823289F504C00E94780D823281
:1047400061F48C2F0E948723811104C08C2F0E945A
:10475000E7221FC081E090E01CC08C2F0E948523BF
:10476000811116C0C43189F058F4CB3089F0C031C2
:10477000B1F482E08093140388E30E94652208C0AC
:10478000C93219F0C83321F00AC01092140307C0CF
:1047900081E0817006C01092140380E002C080E0C6
:1047A000F8CFCF910895CF93DF9386319C4741F5A1
:1047B000EB010E94780D982F8A812091040130919D
:1047C0000501882379F09A7A81E009F480E08093EA
:1047D0001503911102C069E201C065E3C9010E949D
:1047E0002D270AC080911503811102C069E201C022
:1047F00065E3C9010E9430270E94BC0D80E001C022
:1048000081E0DF91CF9108950F931F93CF93DF93B2
:10481000C42FD22FFC0182818823B1F0409318036A
:104820000E94F127909317038093160380E28C0F68
:10483000883008F04DC0C77081E001C0880FCA956C
:10484000EAF70E94530644C080911803481330C011
:1048500080911603909117030E940928883C9105C6
:1048600038F510E21D0FCD17B9F080E28C0F8830BB
:1048700040F4C77081E001C0880FCA95EAF70E9432
:104880005A06183010F581E09D2F977001C0880FEF
:104890009A95EAF70E945306802F0E944906183025
:1048A000B8F4D77081E001C0880FDA95EAF70AC042
:1048B00080E28C0F883060F4C77081E001C0880FFF
:1048C000CA95EAF70E945A0603C0802F0E94490643
:1048D000DF91CF911F910F9108950F93FC01E85143
:1048E000FC47E730F10590F5CB01E756FF4F0C94FC
:1048F000782F06E221EE41EE6AE17CE723C007E271
:1049000025EE45EE6BE17CE71DC006E221EE40EEB0
:1049100068E17CE717C007E225EE44EE69E17CE739
:1049200011C006E221EE42EE6CE17CE70BC007E22B
:1049300025EE46EE6DE17CE705C008E221E045EE9C
:104940006EE17CE70E94042480E008C0FB018281C4
:10495000882319F01092180301C081E00F91089587
:104960008EE1489B02C08150E1F7489BFECF08953D
:10497000589880E28A95F1F7589A0895FC012AE048
:104980002A95F1F728E090E080E031E040E14A9597
:10499000F1F7880F489B02C08160932700C0000098
:1049A00040E14A95F1F7215089F720E12A95F1F786
:1049B00029B100C0000030E13A95F1F7217092274B
:1049C0002081920F90830895A1E0B0E0EAEEF4E236
:1049D0000C94BB2F19828C017C01E60EF11C0E1584
:1049E0001F0551F00E94B024CE0101960E94BE2402
:1049F000F80181938F01F3CF81E09981911180E0DB
:104A00002196E6E00C94D72F509A589A0895509822
:104A1000589AE89AE9E6F0E080818C7F80830895D7
:104A2000615091E001C0990F6A95EAF720E031E00A
:104A3000992361F0492F482319F0589A232701C080
:104A4000589840E24A95F1F79695F2CF222311F05B
:104A5000589A01C0589880E28A95F1F758980895BD
:104A6000FF920F931F93CF93DF93EC018C01060FFE
:104A7000111DC017D10741F0F9900E94B82468E0D9
:104A80008F2D0E941025F5CFCDB7DEB7E5E00C9451
:104A9000D82F1F920F920FB60F9211240F931F93CE
:104AA0002F933F934F935F936F937F938F939F9336
:104AB000AF93BF93EF93FF93CF93DF931F92CDB745
:104AC000DEB719820E94B024CE0101960E94BE2456
:104AD000082F069506950695902F96959570202F90
:104AE0002570920F292F237096959695920F8770B7
:104AF00089135FC0898181115CC0053008F059C0FD
:104B000080E18A95F1F7589A509A82E08A95F1F7F8
:104B100000C0589888E0089F80011124D801A95F3F
:104B2000BE4F1696ED91FC9117973097A9F06091C2
:104B3000C1017091C20114962D913C911597260FD9
:104B4000371F11968D919C911297680F791F1396BC
:104B50004C9113978C910995F801E95FFE4F6381A1
:104B6000662351F08091C1019091C2012481358169
:104B7000820F931F0E9430250E94B82480E18A95FD
:104B8000F1F758985098589A80E18A95F1F7F80112
:104B9000E95FFE4F6081662351F08091C1019091E1
:104BA000C20121813281820F931F0E94E4240E945E
:104BB000B0240F90DF91CF91FF91EF91BF91AF9112
:104BC0009F918F917F916F915F914F913F912F9125
:104BD0001F910F910F900FBE0F901F9018950F937C
:104BE0001F93CF93DF93853091050CF06DC0EC01DE
:104BF000F894509A589885E08A95F1F700009C2F18
:104C0000969595702C2F2570920F892F837096950D
:104C1000969523E0CC0FDD1F2A95E1F7980F8E01C2
:104C2000092B0E94B82484E08A95F1F700C068E05F
:104C3000802F0E94102580E18A95F1F75098589AAC
:104C4000489902C000C0FCCF87E090E0489B08C0B4
:104C5000019721F4509A589A789436C000C0F6CF44
:104C6000FE01E95FFE4F6381662381F08091C101FF
:104C70009091C20124813581820F931F0E94E42408
:104C8000811104C0509A589A78941FC00E94B02491
:104C900080E28A95F1F75898509A80E18A95F1F769
:104CA000C95FDE4F6881662351F08091C101909108
:104CB000C20129813A81820F931F0E9430250E94F0
:104CC000B824789481E001C080E0DF91CF911F91FA
:104CD0000F9108959093EF018093EE0108959093C2
:104CE0001F0380931E0308950E94E213811103C0E5
:104CF000809119030895E0911E03F0911F033097EE
:104D000029F00190F081E02D0995089580E0089543
:104D1000E0911E03F0911F03309721F00280F38190
:104D2000E02D09950895E0911E03F0911F0330973F
:104D300039F022E0DC012C930480F581E02D099507
:104D40000895A3E0B0E0E7EAF6E20C94BF2F2091CB
:104D50001C0330911D0328173907A1F090931D0300
:104D600080931C03E0911E03F0911F03309751F0D4
:104D700023E029839B838A830680F781E02DCE017F
:104D8000019609952396E2E00C94DB2FA3E0B0E0B6
:104D9000ECECF6E20C94BF2F20911A0330911B0328
:104DA00028173907A1F090931B0380931A03E09111
:104DB0001E03F0911F03309751F024E029839B8359
:104DC0008A830680F781E02DCE010196099523960E
:104DD000E2E00C94DB2FFC01329697E080E09150EA
:104DE00029F021912223D9F38F5FF9CF089566230B
:104DF00049F0FC01329608962191621729F0E817D4
:104E0000F907D1F780E0089581E008959C01FC0145
:104E100032969FEF80E04191461789F09F3F19F449
:104E2000411101C0982F8F5F8630A9F79F3F39F05D
:104E3000F901E90FF11D97FDFA9562830895089530
:104E40009C012A5F3F4FFC014281461301C0128240
:104E5000019682179307B9F708950E9406270895CF
:104E60000E9420270895029626E0FC0111922A95BF
:104E7000E9F7089546E050E00E944F3021E0892B89
:104E800009F420E0822F089508950E944427089590
:104E900083E0809320030E9445270895811102C07A
:104EA00081E001C082E0809320030E94452708959D
:104EB0000E944E27089581E0809320030E94452799
:104EC00008950E945B27089508950E94642708951D
:104ED0000E94652708950E94642708950E94642710
:104EE00008950E9464270895CF930E946E270E9420
:104EF0006A130E946B27C0E08C2F0E94351281112B
:104F000004C0CF5FCA30C1F701C081E0CF910895DE
:104F100085B7806885BF85B7806885BF08951F9273
:104F20000F920FB60F9211248F939F93AF93BF935D
:104F300080912103811113C08091770390917803B0
:104F4000A0917903B0917A034196A11DB11D809380
:104F5000770390937803A0937903B0937A03BF917A
:104F6000AF919F918F910F900FBE0F901F9018954A
:104F700080917F03843031F10E94790410922103E3
:104F800020E488E190E00FB6F894A8958093600043
:104F90000FBE2093600083B7817F846083BF83B797
:104FA000816083BF7894889583B78E7F83BF0FB667
:104FB000F894A895809160008861809360001092B9
:104FC00060000FBE08950E94C4080E947E040895E8
:104FD00082E084BD93E095BD9AEF97BD80936E000B
:104FE00008952FB7F8948091770390917803A0915A
:104FF0007903B0917A032FBF08952FB7F894609189
:105000007703709178038091790390917A032FBF91
:1050100008959C014FB7F89480917703909178039D
:10502000A0917903B0917A034FBF821B930B08952F
:10503000CF92DF92EF92FF922FB7F894C090770350
:10504000D0907803E0907903F0907A032FBFA70106
:105050009601261B370B480B590BCA01B901FF906B
:10506000EF90DF90CF90089578941F920F920FB633
:105070000F9211248F939F93AF93BF9380917703E7
:1050800090917803A0917903B0917A030196A11DC4
:10509000B11D8093770390937803A0937903B09325
:1050A0007A03BF91AF919F918F910F900FBE0F9098
:1050B0001F90189587E797E7909301088093000861
:1050C0009AE088E10FB6F894A895809360000FBE2F
:1050D00090936000FFCF9AE088E10FB6F894A8950E
:1050E000809360000FBE90936000FFCF80912A03F1
:1050F00008959B0190917F039430F1F48F70809319
:10510000E9008FEF9091E800815095FD06C095ED84
:105110009A95F1F700008111F5CF8091E80085FFA5
:105120000BC0BA01C90140E050E00E94742A80918E
:10513000E8008E778093E800089543E050E0BC01DA
:1051400082E00E947928089546E050E0BC0182E0A8
:105150000E9479280895CF93DF93EC0148E050E056
:10516000BC0181E00E94792888E0FE01A2E2B3E060
:1051700001900D928A95E1F7DF91CF91089580918A
:105180007E03811109C00E94FF2B0E945C2C80913C
:10519000E20084608093E200089510927E030895F7
:1051A0000E946127089560917B0381E0611101C035
:1051B00080E00E944827089590917F0381E0943019
:1051C00009F080E060917B030E944E27089542E041
:1051D00061EC81E00E94782B42E261EC82E00E9467
:1051E000782B90917F0381E0943009F080E060910A
:1051F0007B030E945827089580918103833009F42E
:1052000061C030F4813071F0823009F49BC00895A0
:105210008A3009F487C08B3009F46CC0893009F0FA
:10522000A9C020C080918003813A09F0A3C0809179
:10523000E800877F8093E800809184039091850344
:10524000892B21F468E082E293E003C060E080E013
:1052500090E070E00E94B92A8091E8008B778093FB
:10526000E800089580918003813209F083C0809125
:10527000840390918503029708F07CC08091E80038
:10528000877F8093E8008091E80082FD05C08091CF
:105290007F038111F8CF6EC02091F3008091F2005E
:1052A00090E0922B029731F48091F100813011F05F
:1052B000863021F48091F10080932A038091E800E8
:1052C0008B7754C080918003813A09F053C080915C
:1052D000840390918503892B09F04CC08091E800EC
:1052E000877F8093E8008091E80080FFFCCF809169
:1052F0004A0137C0809180038132E1F580918403B7
:1053000090918503892BB1F58091E800877F809388
:10531000E8000E94AD2B8091820380934A010E9495
:10532000C408089580918003813221F58091E800BE
:10533000877F8093E8000E94AD2B80918303809348
:105340002B03089580918003813AA1F48091E800B5
:10535000877F8093E8008091E80080FFFCCF8091F8
:105360002B038093F1008091E8008E778093E80012
:105370000E94AD2B089584B7877F84BF0FB6F89441
:10538000A895809160008861809360001092600011
:105390000FBE90E080E80FB6F89480936100909380
:1053A00061000FBE0E945B2708950E94FF2B0E94A0
:1053B0005C2CE2EEF0E080818460808378940E942F
:1053C000E72E089582E491E00E946F26089580916F
:1053D0007F038530A9F480917F03853079F40E94A2
:1053E000B82780917D038823B1F30E947427882316
:1053F00091F30E945E2A0E94C408EDCF0E94E32729
:10540000089508950E94052A0895292F33272330EF
:105410003105C9F060F42130310581F022303105C9
:1054200009F044C08BE390E028ED35E043C0213221
:105430003105E1F02232310549F138C082E190E0D6
:1054400023E136E037C099278130910549F028F0F3
:10545000029761F5EEE9F5E005C0E4EDF5E002C084
:10546000E0ECF5E0849190E09F0124C061157105A6
:1054700041F061307105D1F489E090E023E036E03D
:1054800019C089E090E02AEE35E014C0611571057D
:1054900041F06130710551F48BE790E025E236E090
:1054A00009C080E490E020EA36E004C080E090E0AB
:1054B00020E030E0FA0131832083089580E189BD46
:1054C00082E189BD09B400FEFDCF8091D8008F7DB7
:1054D0008093D8008091E00082608093E00080910A
:1054E000E00081FDFCCF0895A0E0B0E0EAE7FAE239
:1054F0000C94B92FEC018B017A010E94CC2B811105
:1055000033C0E114F10439F0F70180819181081B67
:10551000190BC80FD91FC12CD12C0115110519F178
:105520008091E80085FD16C08091E8008E77809319
:10553000E800E114F10449F0F70180819181C80E7F
:10554000D91ED182C08285E00FC00E94CC2B882357
:1055500021F30AC089918093F10001501109FFEFF6
:10556000CF1ADF0ADACF80E0CDB7DEB7E8E00C94DF
:10557000D52F20918603309187032617370748F0EF
:105580006115710539F42091E8002E772093E80029
:1055900001C0B901FC0120E06115710579F180912C
:1055A0007F038823F1F18530F1F18091E80083FDDC
:1055B0003CC08091E80082FD2EC08091E80080FF11
:1055C000EBCF2091F3008091F20090E0922B6115D7
:1055D000710551F08830910538F421912093F10044
:1055E000615071090196F3CF21E0089709F020E09E
:1055F0008091E8008E778093E800CECF2111CFCF45
:105600000AC080917F03882361F0853061F080912A
:10561000E80083FD0AC08091E80082FFF2CF80E0BD
:10562000089582E0089583E0089581E0089520912F
:105630008603309187032617370748F061157105F7
:1056400039F42091E8002E772093E80001C0B901D9
:10565000FC0120E06115710591F180917F038823A1
:1056600009F440C0853009F43FC08091E80083FD13
:105670003DC08091E80082FD2FC08091E80080FF4E
:10568000E9CF2091F3008091F20090E0922B611518
:10569000710559F08830910540F424912093F10070
:1056A0003196615071090196F2CF21E0089709F017
:1056B00020E08091E8008E778093E800CBCF211125
:1056C000CCCF0AC080917F03882361F0853061F0E0
:1056D0008091E80083FD0AC08091E80082FFF2CF4C
:1056E00080E0089582E0089583E0089581E00895C0
:1056F000982F973068F59093E900981739F07091DA
:10570000EC002091ED005091F00003C0242F762F83
:1057100050E021FD02C09F5FECCF3091EB003E7F57
:105720003093EB003091ED003D7F3093ED003091F0
:10573000EB0031603093EB007093EC002093ED00B0
:105740005093F0002091EE0027FDE5CF80E0089512
:105750008F708093E90081E008958091800387FF36
:1057600011C08091E80082FD05C080917F03811106
:10577000F8CF11C08091E8008B770BC080917F0338
:10578000882349F08091E80080FFF8CF8091E800FD
:105790008E778093E80008952091E4003091E50031
:1057A00095E64091EC00842F817040FF23C08091EA
:1057B000E80080FD1DC080917F03882399F085302B
:1057C00099F08091EB0085FD11C04091E40050916B
:1057D000E5002417350729F3915011F09A01E1CF24
:1057E00084E0089582E0089583E0089581E00895BB
:1057F00080E008954091E80042FFDDCF08950E94C7
:105800006E2C0E94762CE0EEF0E080818160808337
:10581000E8EDF0E080818F77808319BCA7EDB0E0E0
:105820008C918E7F8C9380818F7E808310927E03FB
:1058300008950F931F93CF93DF930E946E2C0E94C5
:10584000762CC8EDD0E088818F7788838881806846
:10585000888388818F7D888319BC10927F03109282
:105860007B0310927D0310927C0300EE10E0F801A0
:1058700080818B7F808388818160888342E060E0C3
:1058800080E00E94782BE1EEF0E080818E7F8083C3
:10589000E2EEF0E080818160808380818860808397
:1058A000F80180818E7F8083888180618883DF9189
:1058B000CF911F910F910895E8EDF0E080818F7EE8
:1058C0008083E7EDF0E080818160808384E082BFA7
:1058D00081E080937E030E94192C0895E8EDF0E0AA
:1058E00080818E7F80831092E20008951092DA000A
:1058F0001092E10008951F920F920FB60F9211249B
:105900002F933F934F935F936F937F938F939F93C7
:10591000AF93BF93EF93FF938091E10082FF0BC0A1
:105920008091E20082FF07C08091E1008B7F80932D
:10593000E1000E94E62E8091DA0080FF1FC0809176
:10594000D80080FF1BC08091DA008E7F8093DA0040
:105950008091D90080FF0DC080E189BD82E189BDC1
:1059600009B400FEFDCF81E080937F030E94BF2831
:1059700005C019BC10927F030E94CD288091E100E0
:1059800080FF19C08091E20080FF15C08091E20085
:105990008E7F8093E2008091E20080618093E2003C
:1059A0008091D80080628093D80019BC85E08093F4
:1059B0007F030E94D3288091E10084FF30C0809152
:1059C000E20084FF2CC080E189BD82E189BD09B479
:1059D00000FEFDCF8091D8008F7D8093D80080910C
:1059E000E1008F7E8093E1008091E2008F7E8093C2
:1059F000E2008091E20081608093E20080917B036D
:105A0000882311F084E007C08091E30087FD02C085
:105A100081E001C083E080937F030E94DC288091B5
:105A2000E10083FF29C08091E20083FF25C08091BF
:105A3000E100877F8093E10082E080937F031092F2
:105A40007B038091E1008E7F8093E1008091E200F2
:105A50008E7F8093E2008091E20080618093E2007B
:105A600042E060E080E00E94782B8091F000886046
:105A70008093F0000E94D028FF91EF91BF91AF91E9
:105A80009F918F917F916F915F914F913F912F9156
:105A90000F900FBE0F901F9018951F920F920FB688
:105AA0000F9211242F933F934F935F936F937F93A4
:105AB0008F939F93AF93BF93CF93DF93EF93FF9316
:105AC000C091E900CF708091EC00D82FD17080FD9B
:105AD000D0E81092E9008091F000877F8093F00079
