:100000000C9491030C942A260C94AE030C94AE032A
:100010000C94AE030C94AE030C94AE030C94AE039C
:100020000C94AE030C94AE030C945F2D0C94312E03
:100030000C9473280C94AE030C94AE030C94AE0392
:100040000C94AE030C94AE030C94AE030C94AE036C
:100050000C94AE030C9418290C94AE030C94AE03CC
:100060000C94AE030C94AE030C94AE030C94AE034C
:100070000C94AE030C94AE030C94AE030C94AE033C
:100080000C94AE030C94AE030C94AE030C94AE032C
:100090000C94AE030C94AE030C94AE030C94AE031C
:1000A0000C94AE030C94AE030C94AE03EA07EA077B
:1000B000160816088408A20891099109A7081D09C5
:1000C0002E092E09451D481D4D1D541D591D5E1D2F
:1000D000631D681D6D1D721D771D7C1D7F1D7F1D9D
:1000E0007F1D7F1D7F1D7F1D7F1D7F1D7F1DEC1DC3
:1000F000EF1DF71DF91DFB1DFD1DFF1D011ECF206E
:100100004121D720A120A520DB20A820DE20E92046
:10011000B3203721B720ED20BB20F1201B21BF20C9
:10012000F5202521C520FB200521AC20E220AF20B1
:10013000E520CA2000211121312133219D20D32027
:100140004A2156245C244A245024622468246E24C4
:10015000992EC02EB82FC02EB82F0C2F2F2FB82FAE
:10016000862F952F3A79656C6C6F775F796F73681E
:10017000693A0035001E001F0020002100220029DE
:10018000002B0014001A00080015001700057E223D
:100190005204001600070009000A00C252E1001DC7
:1001A000000057015702570500C1522352E00000DA
:1001B0000FE200E300E0002C002E002700260025BF
:1001C000002400230046003100130012000C001828
:1001D000001C00067E344233000F000E000D000BA1
:1001E00000C252E500380037003600100011004C04
:1001F0000023526500000FC452E10028002A0001CC
:1002000000A6000100010001000100010000000043
:1002100000AC00AB00AE00AD00010000000000AA81
:1002200000A900A80000000100000000000000007C
:1002300000000000000100010000000000000000BC
:1002400000000001000100010001000100010001A7
:1002500000010000004C0049004D004A004B000125
:100260000000004F005200510050004E00010000FD
:10027000000000000000000000000001000100007C
:10028000000000010000000000010001003A003BF6
:10029000003C003D003E00010001001E021F022044
:1002A00002210222022F0201001E001F0020002155
:1002B0000022000100010001000100010001000115
:1002C0000001000100010001000100010001000126
:1002D00000440043004200410040003F000100454F
:1002E000002D022D002502240223023002010027E6
:1002F0000026002500240023000100010001000168
:1003000000010001000100010001000100010001E5
:1003100000010001000100000001000100010001D6
:10032000000100010000000000087E097E000000BE
:10033000000100010000000000077E0A7E000000AE
:1003400000000000000000000000000000010001AB
:100350000000000000000000000100A08001005625
:1003600000550054002A00B200010000005700614F
:100370000060005F0000000100010057005E005DAA
:10038000005C0000000000000058005B005A0059AB
:10039000000000010001005800630062000100013C
:1003A000000100037C0000000000000000000000CD
:1003B000000000007C027C00000000000001000141
:1003C000000000000000000000000000000000002D
:1003D000000000000000000000010001000000001B
:1003E000000000000000000100000000000000000C
:1003F00000000000000000000000000000000000FD
:1004000000000001000100000000000000000000EA
:1004100000000000000000000000000000000001DB
:1004200000010000000000010000000000010000C9
:1004300001010101010101010102020202020202A5
:100440000202030303030303030304040404040478
:10045000040505050505060606060607070707073E
:1004600008080808090909090A0A0A0B0B0B0C0CF1
:100470000C0D0D0D0E0E0E0F0F0F1010111111128D
:100480001213131414151516161717181819191A0C
:100490001A1B1B1C1D1D1E1E1F202021222223246F
:1004A00024252626272829292A2B2C2D2D2E2F30AE
:1004B000313232333435363738393A3B3C3D3E3FC2
:1004C000404142434445464748494A4C4D4E4F50AF
:1004D000515354555658595A5B5D5E5F616264656D
:1004E0006668696B6C6D6F7072737577787A7B7DF7
:1004F0007E8082838587888A8C8E8F91939596984B
:100500009A9C9EA0A2A3A5A7A9ABADAFB1B3B5B766
:10051000BABCBEC0C2C4C6C9CBCDCFD1D4D6D8DB3D
:10052000DDDFE2E4E7E9EBEEF0F3F5F8FAFDFF00DA
:10053000000000000000002A2B280000000000003E
:100540000000000000000000000029000000002C56
:100550001E3420212224342627252E362D373827F5
:100560001E1F202122232425263333362E37381F01
:100570000405060708090A0B0C0D0E0F10111213C3
:100580001415161718191A1B1C1D2F3130232D3561
:100590000405060708090A0B0C0D0E0F10111213A3
:1005A0001415161718191A1B1C1D2F3130354C0045
:1005B000000000000000000000000000000000003B
:1005C000000000000000000000000000000000002B
:1005D0000000007E0F00D4FFFFFFC700000078205E
:1005E0000341007400740069002700730020004B71
:1005F000006500790062006F006100720064000015
:10060000001203540069006E006B00650072006503
:1006100000720000000403090409023B000201000B
:10062000A0FA0904000001030101000921110100E1
:1006300001224000070581030800010904010001AF
:1006400003000000092111010001227B000705823F
:10065000032000011201000200000008444D445232
:1006600000010102000105010902A1018502090141
:10067000A100050919012908150025019508750132
:1006800081020501093009311581257F9502750820
:10069000810609381581257F950175088106050CAD
:1006A0000A38021581257F950175088106C0C005AD
:1006B000010980A101850319012AB700150126B798
:1006C00000950175108100C0050C0901A101850488
:1006D00019012AA002150126A002950175108100BA
:1006E000C005010906A101050719E029E715002544
:1006F00001950875018102950175088101050719A9
:100700000029FF150026FF009506750881000508E1
:10071000190129059505750191029501750391014E
:10072000C00011241FBECFEFDAE0DEBFCDBF11E065
:10073000A0E0B1E0EAE7F1E602C005900D92AA3F21
:10074000B107D9F723E0AAEFB1E001C01D92AE34A2
:10075000B207E1F70E94A7170C94BB300C9400007D
:10076000CF93FB0186302EE7920709F464C060F452
:10077000853E9105F1F185302EE79207F1F1813E3A
:10078000910509F07CC035C088302EE7920731F121
:1007900040F089302EE7920769F08A309E47A9F031
:1007A0006EC0C281CC2309F46BC08FE691E00E9439
:1007B0009E1F09C0C281CC2309F462C060E084E6B8
:1007C00091E00E94CB21C0E05BC0C281CC2309F440
:1007D00057C06DE474EF81E090E008C0C281CC2383
:1007E00009F44EC06BE474EF81E090E00E944F1F6B
:1007F000EACF82818093FC0142C0C281CC2381F088
:10080000C091FC0181EECC2339F00E94150785EEE2
:100810000E9415078FE21DC00E94660686E21FC077
:100820008FE20E94150781EE0E94150785EE0E9457
:10083000150786E221C0C281CC23A1F0C091FC0142
:1008400081EECC2349F00E94150785EE0E94150722
:1008500080E30E946606B7CF0E94660687E20E9488
:1008600066060EC080E30E94150781EE0E94150700
:1008700085EE0E94150787E20E94150701C0C1E0BE
:100880008C2FCF9108958530B0F46A30A0F44730B2
:1008900090F496E4899FF001112487E0689FE00DB1
:1008A000F11D1124E40FF11DEE0FFF1FED58FE4F57
:1008B00085919491089580E090E008950E9443040A
:1008C00008959C013A9521153F4130F5BC016627FA
:1008D0007270AC01442754709C012227387094FF39
:1008E0000FC090FF02C080E101C080E0672B09F0DB
:1008F0008062452B09F08064232B79F0806808958D
:10090000892F8170672B09F08260452B09F0846084
:10091000232B19F08860089580E00895CF93DF932A
:10092000EB010E946104FE010995DF91CF910895CA
:10093000CF93DF93EC01805E9109089710F0209728
:1009400019F463EA77E002C06AEF79E0CE010E9411
:100950008E048C2F0E946606DF91CF910895CF936D
:10096000DF93EC010E941507CE01805E9109089784
:1009700010F0209719F46AEA77E002C061E07AE0AB
:10098000CE010E948E04DF91CF9108950F931F93A3
:10099000CF93DF938C01EB010E949804209741F0E4
:1009A0008FE99FE00197F1F700C000002197F6CF93
:1009B000C8010E94AF04DF91CF911F910F9108955C
:1009C0008933910519F060E070E002C060E570E0E5
:1009D0000E94C604089581E008950E94B00308951E
:1009E00008950E94F0040895A5E0B0E0EAEFF4E075
:1009F0000C94353049835A833091020289819A815F
:100A0000311114C0662359F0222349F00E947D0B56
:100A1000182F682F89819A810E94590B03C00E9468
:100A20006B0B182F69817A81812F04C00E947D0B86
:100A300069817A810E9443122596E3E00C9451303B
:100A4000FC01262F408151816281738184810E9443
:100A5000F404089581E00895CF93DF93EC0160E002
:100A60000E942005BE010E94F104DF91CF910895FC
:100A70000E94AE1308950E94A813089508950E943D
:100A8000220A0E943E052FEF84E39CE02150804023
:100A90009040E1F700C0000008950E943F050E94C9
:100AA0003E2908950E943F050E944F2908950F9303
:100AB0001F93CF93DF938C0161E00E942005EC012E
:100AC000B8010E94E824882329F061E0C8010E944F
:100AD0002005EC01B801CE010E94ED04882399F1B4
:100AE000B801CE010E941025882369F1B801CE011A
:100AF0000E94D51D882339F1B801CE010E943E2401
:100B0000882309F1B801CE010E9479208823D9F009
:100B1000B801CE010E94A4238823A9F0B801CE0118
:100B20000E942E1D882379F0F8018281882349F1E3
:100B3000C3308CE7D807D9F060F4C115FCE7DF07B4
:100B400021F40E944D0580E01FC0C130DC4789F0D0
:100B500018C0CB35ECE7DE0791F0CC35FCE7DF07BA
:100B600059F0CA35DC4769F40E94BE0F0AC00E94E2
:100B7000C60F0E945205E7CF0E94B40F02C00E9428
:100B8000C20FC8010E94EB04DF91CF911F910F911A
:100B900008950E944C280E94F30508950E94F705CD
:100BA0000E945528089508950E94D305089581E074
:100BB00008950895CF93DF93D82F0E94D705C82FAB
:100BC000882319F08D2F0E94D9058C2FDF91CF91AA
:100BD00008950895CF93C82F0E94D4058C2F0E94AA
:100BE000DA05CF91089580E00E94EA0508950E94F9
:100BF00055270E94EA050895CF930E945527C82FD4
:100C00008091FD01C81779F0C093FD010E94E12891
:100C10006093FE017093FF018093000290930102A4
:100C20008C2F0E94EA05CF910895ABE0B0E0EBE194
:100C3000F6E00C9436304F83588769877A878B8724
:100C400061110E94FC0E9E012F5F3F4F86E0F9016B
:100C500011928A95E9F785E0FE013796D901019056
:100C60000D928A95E1F789819A814C815D81452BAE
:100C700031F09F3F31F491E08F3F19F403C091E0D0
:100C800001C090E090FF09C049815A816B817C814D
:100C90008D819E810E94220E05C0C9010E942A05F5
:100CA0008111F2CF2B96E2E00C945230FC0180814E
:100CB00091810E94AF0B0895662319F00E942C18B1
:100CC00002C00E9487180E94FE180895CF938823BF
:100CD00009F4A9C0C82F8238C1F40E94552781FDAC
:100CE000A2C069E380913601909137010E941128DA
:100CF0000E94200F2FEF87EE93E02150804090401C
:100D0000E1F700C0000069E319C0833801F50E94D3
:100D1000552780FD88C063E58091360190913701A9
:100D20000E9411280E94200F2FEF81EE94E02150A5
:100D300080409040E1F700C0000063E580913601FB
:100D4000909137010E9414280E94200F6CC08438B3
:100D5000C1F40E94552782FD66C067E48091360188
:100D6000909137010E9411280E94200F2FEF81EEF1
:100D700094E0215080409040E1F700C0000067E41B
:100D8000DDCF8CEF8C0F813AF8F48C2F0E945B231F
:100D9000811149C06C2F80913601909137010E94DA
:100DA000DB27882349F06C2F809136019091370121
:100DB0000E9414280E94200F6C2F80913601909180
:100DC00037010E941128C0CF80E28C0F883048F490
:100DD000C77081E001C0880FCA95EAF70E94D90E5A
:100DE000B3CFEBE5EC0FE33040F4F0E0E155FE4F1C
:100DF000808190E00E94852716C0E8E5EC0FE9317C
:100E000050F4F0E0EE0FFF1FE358FE4F8081918118
:100E10000E94AA2708C083E38C0F833120F461E08D
:100E20008C2F0E945C06CF910895882309F468C036
:100E3000823879F40E94552781FF62C069E380916E
:100E40003601909137010E9411280E94200F69E31A
:100E500010C08338B9F40E94552780FF51C063E564
:100E600080913601909137010E9411280E94200F35
:100E700063E580913601909137010E9414280E9409
:100E8000200F0895843879F40E94552782FF38C0D6
:100E900067E480913601909137010E9411280E94E9
:100EA000200F67E4E6CF9CEF980F913A10F4682F7B
:100EB000E0CF90E2980F983050F4877091E001C035
:100EC000990F8A95EAF7892F0E94DF0ED8CF9BE50C
:100ED000980F933028F480E090E00E9485270895D1
:100EE00098E5980F993128F480E090E00E94AA27B5
:100EF000089593E3980F933118F460E00E945C0624
:100F000008951F93CF93DF93182FEB010E9466067D
:100F1000209741F08FE99FE00197F1F700C00000B2
:100F20002197F6CF812F0E941507DF91CF911F9156
:100F30000895893319F060E070E002C060E570E068
:100F40000E9481070895882321F00E94D90E0E94F3
:100F5000200F0895882321F00E94DF0E0E94200FA9
:100F60000895A0E0B0E0E7EBF7E00C9430307C01AE
:100F7000162FC72FFC01D281058102950F700E94A8
:100F8000CF0E8823B9F0DD23A9F08C2F807F803429
:100F900021F080E2810F883068F08091F10282FFB9
:100FA00009C082E00E94820F0E94CF0E91E0D82EED
:100FB000D92601C0D12CCC2EC2948FE0C8228C2D12
:100FC00090E08C30910508F0ACC1FC01EA5AFF4F6B
:100FD0000C9420308C2F807FCF70882311F0C29525
:100FE000C07FDD2399F0CC2309F487C180E2810F13
:100FF000883010F0111104C08C2F0E94D90E03C04C
:101000008C2F0E94EF0E0E94200F77C1812F0E942B
:101010001507CC2309F485C180E2810F883038F1AF
:10102000112329F18C2F0E94F50E24C08C2F807F74
:10103000CF70803211F0C295C07F112319F01130AA
:10104000D1F143C08091F10282FD17C0DD2349F048
:10105000CC2329F08C2F0E94D90E0E94200F80E013
:101060004DC180E00E941507CC2309F45AC18C2F92
:101070000E94DF0E0E94200F54C1DD2371F0002377
:1010800041F0013031F40E94FF0E8C2B0E94090FB9
:1010900048C10E94FF0E8C2B23C0011103C00E9487
:1010A000160F2EC0013009F43CC18C2F0E94AA07F4
:1010B0000E94160F36C1DD2321F0033008F031C144
:1010C0000EC0023008F02DC11BC0DD2361F00023EB
:1010D00031F0F701858180FF10C18F7085838C2FDF
:1010E0000E94A3071EC1002359F0193309F016C14D
:1010F000FFEF27EE83E0F15020408040E1F70CC184
:101100008C2F0E94AA070DC18C2F8695869583701F
:1011100019F0813061F005C1DD2321F0812F9C2F72
:10112000937002C080E090E00E94852702C1DD2319
:1011300021F0812F9C2F937002C080E090E00E94EC
:10114000AA27F7C06D2F812F0E945C06F2C08C2F5A
:101150008370B1F5D111E9C0412F42954695477092
:10116000440F440F812F8F7090E09C01042E02C029
:10117000220F331F0A94E2F714FF0AC08FE090E0B9
:1011800002C0880F991F4A95E2F78095909502C09A
:1011900080E090E0C695C695C370822B932BC23039
:1011A00049F058F4C13019F00E948C0ABEC00E9468
:1011B000830ABBC00E94950AB8C00E94800AB5C0CD
:1011C000DD2319F08C2F817001C08695882309F4E6
:1011D000ACC0412F429546954770440F440F812F74
:1011E0008F7090E09C01042E02C0220F331F0A94DE
:1011F000E2F714FF0AC08FE090E002C0880F991F49
:101200004A95E2F78095909502C080E090E0C695FF
:10121000C695C370822B932BC23049F058F4C1306D
:1012200019F00E94F40A81C00E94EB0A7EC00E945D
:10123000FD0A7BC00E94A10A78C0CF70DD2339F07F
:101240008C2F0E94B90A812F0E94A3076EC0812FA4
:101250000E94AA078C2F0E94C90A67C0123F21F181
:1012600028F4103F41F0113FC1F043C0133F19F182
:10127000143F79F03EC0DD2341F0023008F051C048
:101280008C2F8F710E94DB0A4CC0033008F049C0DC
:10129000F7CF8091F10282FD18C0DD2339F08C2F49
:1012A0008F710E94B90A3DC0DD23C9F38C2F8F7165
:1012B0000E94C90A36C0DD2329F08C2F8F710E944D
:1012C000AD0A2FC00E94A80A2CC0DD2349F0CF71BF
:1012D0008C2F0E94B90A63E08C2F0E94640F21C0FA
:1012E00081E00E94820F0230E0F082E00E94820FD3
:1012F00018C0DD2331F0002391F2812F0E94660691
:1013000010C0002399F2193349F49FEFE7EEF3E0A0
:101310009150E040F040E1F700C00000812F0E94B2
:10132000150788EF8C0D843020F40E9455270E9409
:10133000EA05DD2089F00E94CB0E80FD0DC0F7018B
:1013400012820E94C50E0E94B90AC7010E94C909F3
:101350000E94C50E0E94C90ACDB7DEB7E8E00C9422
:101360004C300F931F93CF93DF93EC016881798109
:101370008A810E94BA0B8C010E94060B0E94710A9E
:10138000B801CE010E94B107DF91CF911F910F915B
:101390000895CF93DF93EC01988189812B813C8163
:1013A000232B31F08F3F31F481E09F3F19F403C0CC
:1013B00081E001C080E080FD1AC0CE010E94570587
:1013C00081110FC00E94CF0E882389F08A81882363
:1013D00071F08091F10282FF0AC082E00E94820FC8
:1013E00006C0CE010E94B109CE010E942C05DF91FA
:1013F000CF910895882321F00E94EF0E0E94200FC4
:101400000895882321F00E94F50E0E94200F089570
:1014100080E090E00E94852780E090E00E94AA276B
:101420000E94FC0E0E94200F0E941D190E94FE18AF
:10143000089580913601909137010E9417280E94EB
:10144000080A08950E94E90E0E94190A08959295CB
:101450009F70963079F010F4925001C09A509230FB
:1014600068F4803F69F018F4883E40F409C0843F76
:1014700029F406C0883E20F0813F11F080E00895F5
:1014800081E00895FC019081818123813481232BA7
:1014900031F08F3F31F481E09F3F19F403C081E0C8
:1014A00001C080E080FD07C0808191810E94AF0B68
:1014B0000E94270A089580E00895A5E0B0E0E3E6E1
:1014C000FAE00C9436302596E2E00C945230A6E017
:1014D000B0E0EDE6FAE00C9436302696E2E00C94AB
:1014E0005230089508950E94720A08950E94730A66
:1014F00008950E94760A90932A0280932902089503
:101500000E94790A08952091290230912A02822BA3
:10151000932B0E94790A08952091290230912A0282
:10152000822393230E94790A089520912902309101
:101530002A02822793270E94790A08950E94720A3C
:1015400008950E949E0A909328028093270208958E
:1015500080E090E00E94A10A089521E030E0A90116
:1015600002C0440F551F8A95E2F7CA010E94A10AE2
:10157000089521E030E002C0220F331F8A95E2F780
:101580008091270290912802822B932B0E94A10A1E
:10159000089521E030E002C0220F331F8A95E2F760
:1015A00020953095809127029091280282239323E1
:1015B0000E94A10A089521E030E002C0220F331FEB
:1015C0008A95E2F78091270290912802822793273B
:1015D0000E94A10A08952091270230912802822BAF
:1015E000932B0E94A10A089520912702309128028E
:1015F000822393230E94A10A08952091270230910B
:101600002802822793270E94A10A08950895962F01
:101610009770A1E001C0AA0F9A95EAF793E076953A
:1016200067959A95E1F7660F771F660F771FFA01A6
:10163000E60FF71F40E050E0682F70E090819B01BB
:10164000042E02C0369527950A94E2F72170219561
:1016500029272A23292721934F5F5F4F44305105C3
:1016600069F70895FB01782F777023E096958795A9
:101670002A95E1F7880F991F880F991FE80FF91F26
:1016800040E050E080E0219130E0072E02C0369526
:1016900027950A94E2F721703327042E01C0220F08
:1016A0000A94EAF7822B4F5F5F4F4430510559F798
:1016B0000895282F9A3070F4873060F4862F622FB7
:1016C00070E027E0929F600D711D112443E052E00D
:1016D0000E94070B08959A3070F4873060F4292F28
:1016E00090E063E072E037E0239F800D911D1124AC
:1016F0000E94320B089580E00895A0E0B0E0E3E896
:10170000FBE00C942F307C010091270210912802FD
:101710008091290290912A02082B192BCFE0D0E06A
:10172000CC24C394D12CC6010C2E02C0880F991F63
:101730000A94E2F780239123892B21F4219798F7CB
:10174000B12C07C0BC2EB7018C2F0E944F120197FD
:10175000A9F38B2DCDB7DEB7E9E00C944B30CF93D6
:10176000DF93EC010E947D0BBE010E944F12DF91BE
:10177000CF9108951F93CF93DF93EB0190910202D5
:10178000992321F0CB010E94AF0B13C0882349F0AD
:10179000CB010E947D0B182F682FCE010E94590BA0
:1017A00004C0CB010E946B0B182FBE01812F0E9439
:1017B0004F12DF91CF911F9108951F93CF93DF9325
:1017C000C0912B0216E080912C02C81799F0D0E04E
:1017D0001C9FF0011D9FF00D1124E35DFD4F408122
:1017E000518162817381848195810E94670A21966B
:1017F000C770E9CFDF91CF911F91089540915D02AD
:1018000050915E0260915F0270916002809161026E
:10181000909162020E94670A08950F931F93CF93DD
:10182000DF938091620282958F7009F05AC0809197
:101830005F02882309F455C080912B0210912C027D
:1018400060915D0270915E02C0916002D091610270
:1018500091E06F3F09F090E0292F06E0811709F42D
:1018600040C0209721F07F3F21F030E003C031E0FD
:1018700001C0322F90E030FD31C0089FF001099F78
:10188000F00D1124DF01A35DBD4F11963C9111971E
:10189000371324C03C91361321C012963C91129705
:1018A00031111CC013964D915C9114974C1B5D0B2C
:1018B000483C510598F4809162028F70806180935A
:1018C0006202EE5CFD4F80818F70806180838DE5C8
:1018D00092E00E94C9090E94DD0B03C00196877047
:1018E000BDCFDF91CF911F910F910895A1E1B0E09D
:1018F000ECE7FCE00C942D308C0185E0F801DE0172
:101900001D9601900D928A95E1F7F801E280909181
:101910005D0260915E0220916002309161022115AA
:10192000310531F06F3F31F481E09F3F19F403C07E
:1019300081E001C080E0F82FF1709F2E80FD40C152
:10194000F80140815181A380B4808DE5C82E82E0EA
:10195000D82EF0905F02F501E21BF30BFF2009F493
:10196000DAC080916202E83CF10508F096C0282FA9
:10197000207F09F053C0561313C0491311C0FE2C29
:10198000E1100EC08F708061809362020E94FE0B96
:10199000C6010E94C90980916202F80185834DC188
:1019A000A114B10431F05F3F31F481E04F3F19F4ED
:1019B00003C081E001C080E080FD03C081E08E258E
:1019C00002C080E090E0F82FF170FF2E80FF1CC075
:1019D00080912B0220912C0236E0821709F40BC172
:1019E00090E0389FF001399FF00D1124E35DFD4F29
:1019F0006181561306C06081461303C06281E612FE
:101A000003C001968770E9CFFE2CEE2009F415C1C2
:101A10008091620281608093620254C0561306C0B6
:101A2000491304C0E11002C0F80199C0C8010E9426
:101A3000420A882361F1EE2051F120916202822F47
:101A400082958F7090E0029774F080915D02909182
:101A50005E0298878F831986BB86AA862C87CE0163
:101A600007960E94C90986E0F801ADE5B2E0019051
:101A70000D928A95E1F70E940D0C0E94FE0B0AC0A0
:101A8000561711F1C8010E94420A81112CC0C801E9
:101A90000E94C909FF24F394D0C0282F207F81F72A
:101AA0007A2DB98AA88A6E2D89890E945D0A8DE5F2
:101AB00092E00E94C90986E0F60111928A95E9F741
:101AC0000E94FE0BF12CB9C04913DCCFE110DACF34
:101AD000F8018583C8010E94C90986E0F6011192C8
:101AE0008A95E9F7AAC0EE2091F220916202822F36
:101AF00082958F7090E002970CF4B5CF80915D02D3
:101B000090915E029A8389831B82BD82AC822E8370
:101B1000CE010196A6CFE83CF10508F044C0FE2CAA
:101B2000EE2009F4B4CF561330C049132EC02091D3
:101B3000620220FD21C0822F82958F70482F50E0D5
:101B400041155105C9F0F80125834F30510541F089
:101B50008F5F982F9295907F822F8F70892B85832E
:101B6000C8010E94C90986E0F801ADE5B2E0019024
:101B70000D928A95E1F73CC086E0F801ADE5B2E050
:101B800001900D928A95E1F758C0C8010E94420A5F
:101B9000811169CF80916202816080936202C801E5
:101BA0000E94C9094AC07A2DB98AA88A6E2D8989EE
:101BB0000E945D0A86E0F60111928A95E9F718C045
:101BC000EE2009F464CFC8010E94420AF82E88234F
:101BD00009F45DCF86E0F801ADE5B2E001900D9229
:101BE0008A95E1F78DE592E00E9456060E940D0C61
:101BF0000E94FE0B22C04D875E878D859E850E94C8
:101C0000AF0B292F22952F70223028F49F7039F0C6
:101C1000811105C00BC0243028F49F7049F4805E08
:101C2000883020F0C8010E94C9099F2CF92C05C0FA
:101C3000F8019581907F99F7F9CF8F2D6196EBE0B0
:101C40000C944930ACE0B0E0E8E2FEE00C943530B2
:101C50004F83588769877A878B879C87CE01079641
:101C60000E94760C8823D1F09F8188852A853B8548
:101C7000232B31F08F3F31F481E09F3F19F403C0F3
:101C800081E001C080E080FD47C04F8158856985B3
:101C90007A858B859C850E94670A3EC086E0FE019E
:101CA0003796DE01119601900D928A95E1F7FF813A
:101CB000E8856A857B856115710531F0EF3F31F468
:101CC00081E0FF3F19F403C081E001C080E080FDA6
:101CD00023C020912C0230E0C9010196877099271A
:101CE00040912B0250E084179507F1F1F983EA83C4
:101CF0007D836C8396E0929FD001939FB00D112459
:101D0000A35DBD4FFE01319601900D929A95E1F7CA
:101D100080932C020E94DD0B16E080912B029091A3
:101D20002C02891771F1189FC0011124835D9D4F0A
:101D30000E94760C882329F1E0912B021E9FF0016E
:101D40001124E35DFD4F4081518162817381848163
:101D500095810E94670A80912B0290E0019687701E
:101D6000992780932B02D9CF0E94220A10922C022D
:101D700010922B02EDE5F2E086E0DF011D928A95DC
:101D8000E9F72C96E3E00C94513080916B02859535
:101D900085958595089580916B028770089590913F
:101DA0006B02977081E009F480E0089580917602DB
:101DB000089590917602892B8093760208958095FC
:101DC000909176028923809376020895809376021B
:101DD0000895109276020895809175020895909169
:101DE0007502892B809375020895809590917502F4
:101DF0008923809375020895109275020895809149
:101E00006C02089508950E94020F08950E94030F26
:101E100008959091F10292FF08C090916C0298177A
:101E200021F080936C020E94060F089580916C024D
:101E3000882329F010926C0280E00E94060F08951A
:101E4000CF93DF93E0913601F091370180917602D4
:101E50008083E0913601F091370190818091750285
:101E6000892B808380916C02882381F0E091360178
:101E7000F09137019081892B808380913601909178
:101E800037010E94CF2781110E94160FC0913601A1
:101E9000D091370148E050E063E672E0CE010E9445
:101EA0005D30892B59F088E0FE01A3E6B2E0019095
:101EB0000D928A95E1F7CE010E946C27DF91CF91B8
:101EC00008950E94020F08959091F10292FF11C0AF
:101ED00098E0899F90011124262B20936B020E9489
:101EE000B90A80916B028595859585950E94610F51
:101EF00008950E94B90A089510926B0280E00E9432
:101F0000610F089520916B028095822380936B026C
:101F1000982F977099F430E0482F082E000C550B3D
:101F20002417350759F09091F10292FF07C085956B
:101F3000859585950E94C90A0E947C0F089590910D
:101F4000F10292FB222720F9281769F080FB92F911
:101F50009093F1028091F0029091F1020E94E70FBC
:101F600082E00E94820F08958091F10282FB88270F
:101F700080F991E089270E949F0F089581E00E94D7
:101F80009F0F089580E00E949F0F08956FEF7FEFED
:101F900080E090E00E94A530089580E090E00E94EB
:101FA000813021E0873E9E4F09F020E0822F089586
:101FB00082E090E00E947330089583E090E00E94F8
:101FC0007330089584E090E00E9481300895BC0150
:101FD00084E090E00E94A5300895AB01BC018FE041
:101FE00090E00E9499300895AB01BC0183E190E03C
:101FF0000E949930089560E070E0CB010E94F40FD8
:10200000089560E070E0CB010E94ED0F0E94FB0F8D
:10201000089567EE7EEF80E090E00E94A53060E0DA
:1020200082E090E00E94873060E083E090E00E94D0
:10203000873010922A021092290260E074E184E055
:1020400090E00E94A53060E086E090E00E9487303A
:102050006FEF87E090E00E94873040E050E0BA01E7
:1020600088E090E00E94993060E08DE090E00E946E
:10207000873040E050E0BA0188E190E00E9499305A
:1020800060E087E190E00E94873040E050E0BA01D4
:102090008CE190E00E94993060E070E080E290E096
:1020A0000E94A53040E050E0BA0188E190E00E9433
:1020B00099300E94011008950E9409100895682F18
:1020C0008EE090E00E94873008950E94E12860939E
:1020D0008702709388028093890290938A026093AA
:1020E0008302709384028093850290938602089500
:1020F0000E944115089508950E947B1008950E9442
:102100007B1008950E947F1008950E947B1008950F
:102110000E94851008950E947B10089583E793E143
:102120000E944B270E948B100E94881008950E94E5
:102130007C100E947B1008950E9476130E94E9058E
:102140000E94261E08950E94CC280E9433130E94EC
:102150005C150E94A4140E949C100E94AF1D0E9456
:10216000B71C0E9466150E94821008950E944115B6
:1021700081110E9471250895AAE0B0E0E2ECF0E13F
:102180000C942E300E94C91489E7E82E82E0F82EC4
:10219000670100E0F60111916F01802F0E949413F6
:1021A00081270F5F0A3019F08823A1F322C0811123
:1021B00020C00E94D5288C018091770290917802EE
:1021C0000817190709F450C08FEF89838A831B828F
:1021D0000E94D5288160782F9D838C8349815A8104
:1021E0006B818D810E94150610937802009377020F
:1021F0003BC080918B0281FD0E949A130E9478104F
:10220000A82E10E0812F0E949413B82EF701C080F1
:10221000C82611F100E0DD24D3948C2D8D21B1F07E
:10222000AA20A1F00E831F8391E08B2D8D2109F44C
:1022300090E098870E94D5288160782F9A878987B7
:102240004E815F8168858A850E9415060F5FDD0CCF
:10225000073019F7F701B0821F5FFFEFEF1AFF0A8F
:102260001A3081F60E9465100E94B6100E943F1934
:102270000E94FC052A96EAE00C944A30CF93DF9343
:102280000E945412EC01811520E59207E0F58115BA
:1022900030E4930708F09FC0803E910528F58D3CFF
:1022A000910508F096C0883A910570F4853A910539
:1022B00008F085C08130910509F47EC008F4DCC0C7
:1022C000049708F0DCC0D8C0813C910508F0D4C068
:1022D000C85AD0E0CC0FDD1FCE54DE4F0990D88114
:1022E000C02DCE019464CCC0811540E2940708F063
:1022F000B8C0811551E0950708F0C1C0883E91052E
:1023000008F4BDC0B9C0803662E5960720F5803478
:1023100072E5970708F06CC0C03282E5D80708F074
:102320005EC0C11592E5D90708F489C02C2F269507
:10233000269560E2269F90011124C37081E090E011
:1023400002C0880F991FCA95E2F7E901C82BD92B63
:10235000CE019D6895C0803A22E59207E0F48F7126
:10236000C03832E5D30708F059C08695869570E2EB
:10237000879F900111249C2F9370C1E0D0E0AE01A3
:1023800002C0440F551F9A95E2F7EA01DA68C901C5
:102390008C2B9D2B75C0803C42E5940708F445C00A
:1023A000803E924508F068C0CF71DD27DC2FCC2736
:1023B000CE01806F906A64C081E090E061C0C55A30
:1023C000D0E0CC51DE4F8881C82FD0E0CE019064A0
:1023D00057C0906555C0DF70CE01906A51C0CF7173
:1023E0008C2F90E0D82FCC27CE01816F906A48C007
:1023F0008F718695869570E2879FA00111249C2F8E
:10240000937021E030E0B90102C0660F771F9A9502
:10241000E2F7CB019C68842B952B32C090E0D82F3B
:10242000CC27CE01846F906A2BC08F710E94F0126E
:102430008F7190E0D82FCC27CE01906221C08C2FD5
:102440008F710E94F01295E0D695C7959A95E1F7A5
:10245000CF70D0E0DC2FCC27D069BE01682BCB0138
:102460000FC08D2F8F710E94F012DD27D0628F7107
:102470009E01382BC90104C080E090E001C0CE016C
:10248000DF91CF9108957A3038F4673028F4462FE1
:10249000672F0E945E04089580E090E008950E94F6
:1024A00043120E943E1108958238910569F1B0F4FB
:1024B0008133910509F475C048F48932910509F416
:1024C00067C08A32910509F471C00895853391057A
:1024D00009F459C089339105B9F00895833E9105F7
:1024E00089F138F4803E9105D1F0823E910529F1C1
:1024F0000895863E9105C9F1873E9105D9F1843E44
:10250000910509F06CC027C02091F00220FD57C052
:1025100021FD55C02091F10223FD5BC008958091FB
:10252000F00280FD48C08091F10280FF48C0809198
:10253000F00284FD46C083EE51C08091F00282FF1C
:102540003CC0F5CF8091F00282FD37C08091F1024E
:1025500080FD35C0ECCF8091F10281FF36C08091C3
:10256000F00284FD2EC087EE39C08091F00283FF17
:102570002AC0F5CF8091F00283FD25C08091F10241
:1025800081FD23C0ECCF8091F00285FD22C01FC0E9
:102590008091F00285FD1BC08091F10283FF19C07C
:1025A0000AC08091F00286FD16C017C08091F0022B
:1025B00086FD13C010C089E311C082EE0FC080EE0B
:1025C0000DC080E00BC086EE09C084EE07C085E335
:1025D00005C089E203C08AE201C081E390E008956A
:1025E0009091F00292FF0DC0282F2871283019F425
:1025F000877F846006C0282F2471243011F48B7FDC
:10260000886093FF0DC0282F2871283119F4877E28
:10261000846106C0282F2471243111F48B7E8861D7
:102620002091F10220FF0DC0382F3871383019F495
:10263000877F816006C0382F3171313011F48E7F71
:10264000886021FF0DC0282F2871283119F4877E5A
:10265000816106C0282F2171213111F48E7E88619D
:1026600094FD877E08951092EC021092ED02109274
:10267000EE021092EF020895CF92DF92EF92FF9256
:102680006B017C010E94411581110EC00E94E1285E
:10269000C61AD70AE80AF90AC092EC02D092ED02F3
:1026A000E092EE02F092EF02FF90EF90DF90CF9079
:1026B00008950F931F930E944115882319F00E94DB
:1026C000E1280EC00E94E1280091EC021091ED0279
:1026D0002091EE023091EF02600F711F821F931F55
:1026E0001F910F91089580E0089508950E94CD0FE5
:1026F000811102C00E945C100E94D80F80938B024F
:102700000E94E20F9093F1028093F0020E947513F1
:102710000E94DD0F90E00E94800A80912702909134
:1027200028020E949E0A0895E82FF0E0E350FD4F32
:1027300080810895089580EA8A95F1F7089500C090
:1027400008950E949B13089508950E94A41308956C
:102750000E94A51308950E94A41308950E94AB132C
:1027600008950E94A4130895A5E0B0E0EAEBF3E118
:102770000C9433300E944115609107038823E9F1DE
:1027800085E0F82E8E010F5F1F4FF8018F2D1192FB
:102790008A95E9F7862F90E0B80183509D4F0E94FB
:1027A0007415882389F08091F20290E045E050E0B2
:1027B000B80183509D4F0E945D3021E020938C0230
:1027C000892B61F410E016C080918C028823D1F32C
:1027D000F8011192FA94E9F710928C02A091F2029A
:1027E000B0E0A350BD4F85E0F80101900D928A95AD
:1027F000E1F711E00E943B050DC070E063507D4F92
:102800008091F20290E083509D4F0E94FD150E943E
:10281000B11310E0812F2596E5E00C944F30F89429
:10282000E82FE295EF70F0E031A1282F2F7081E0C2
:1028300090E001C0880F2A95EAF7982F909593238E
:1028400091A392A1892B82A3789408950F931F934B
:10285000CF93DF93CEEED1E089918F3F11F00E94AC
:102860000F1481E0C33FD807B9F7C7EED1E00EEEF1
:1028700011E089918F3F11F00E940F140C171D0772
:10288000C1F7DF91CF911F910F910895A0E0B0E0C3
:10289000ECE4F4E10C9430308C01C62FD0E0CE0192
:1028A00082519E4F7C01FC0190819F3F09F447C0FB
:1028B000D62EF894E92FE295EF70F0E081A19F7099
:1028C00021E030E001C0220F9A95EAF7822B81A324
:1028D00082A12095282322A378940E949F13E7EEDB
:1028E000F1E04EEE51E031E0C12C21912F3F89F013
:1028F000A22FA295AF70B0E090968C9190E02F70CF
:1029000002C0959587952A95E2F780FD02C0832F36
:1029100001C080E0C82A330F4E175F0731F7F70177
:1029200080818F3F11F00E940F1461E0C11001C03F
:1029300060E08D2D0E94A113C00FD11FC882CDB7BA
:10294000DEB7E8E00C944C3080913801809138017A
:10295000811102C095E001C090E09093070385E0EB
:10296000891B8093F2020E9426148AE0EDEFF2E0C8
:10297000DF01982F1D929A95E9F7E3EFF2E0DF016E
:102980001D928A95E9F785E00E9407150E94380597
:102990000895AAE0B0E0EFECF4E10C9433308E013E
:1029A0000F5F1F4F8AE0F80111928A95E9F7F12C29
:1029B0006F2DC8010E944614F394F5E0FF12F8CF82
:1029C0004AE050E0B80183EF92E00E945D3021E0E0
:1029D000009709F420E0892B41F08AE0F801A3EF89
:1029E000B2E001900D928A95E1F76091070370E0E3
:1029F00063507D4F45E083EF92E00E940815182F49
:102A00000E94B413812B2A96E5E00C944F30089570
:102A1000EF92FF920F931F93CF93DF937C018B0173
:102A2000C42F222349F081E080938F020E94D52891
:102A300090938E0280938D0280918F02811102C04B
:102A400080E01AC080918D0290918E020E94ED2844
:102A50000597B0F3D0E0AE01B701C8010E945D3028
:102A6000892B39F0AE01B701C8010E946A3081E0BC
:102A700001C080E010928F02CDB7DEB7E6E00C9483
:102A80004E308091920281110DC00E94EB2F811176
:102A900002C082E001C081E080939202823011F492
:102AA0000E94E62F81E090919202913009F080E03F
:102AB00008950E94411508950E9459158093380188
:102AC0000E94411581110E94AC1508950E94411584
:102AD000811102C00E94AF15089581E09091930288
:102AE0009A3008F080E008950F931F93CF93DF93FF
:102AF000EC018B01809193028A3038F4B801CE0149
:102B00000E94FA1581111DC00AC080919002909117
:102B100091020E94ED28843F914080F715C080917A
:102B200093028F3F19F08F5F8093930280919302FD
:102B30008A3060F00E94D528909391028093900291
:102B400003C01092930202C080E001C081E0DF91D7
:102B5000CF911F910F9108950E94E52508950E943D
:102B6000E8250895A0E0B0E0E8EBF5E10C94313001
:102B70007901C82F880FDD0B41155105A9F0FE0121
:102B800093E0EE0FFF1F9A95E1F7E75CFE4F81811E
:102B900092818C569D4F208130E04217530708F4F4
:102BA0009A01A9010E946A30CE010E94D026D82E37
:102BB0008823D1F001151105B9F083E0CC0FDD1F9A
:102BC0008A95E1F7FE01E75CFE4F438150E0041770
:102BD000150708F4A801C75CDE4F6C817D816C5637
:102BE0007D4FC7010E946A308D2DCDB7DEB7E7E07B
:102BF0000C944D300E942D1708950E944E17089591
:102C0000A4E0B0E0E6E0F6E10C9434306091B30269
:102C10007091B4028091B5029091B6020E94FC2896
:102C2000643671058105910528F10E945913DC0174
:102C3000CB010296A11DB11D89839A83AB83BC830E
:102C400000E010E020E030E044E050E0BE016F5FC3
:102C50007F4F82E00E94B215182F882361F00E94F6
:102C6000E1286093B3027093B4028093B50290930D
:102C7000B60201C011E0812F2496E4E00C9450309C
:102C8000A0E0B0E0E6E4F6E10C942E307C015B01BC
:102C90006A010E946D15811103C001E010E002C0BD
:102CA0000AE010E0C1E0D0E0B501C701F6010995E6
:102CB000811115C021960C171D0794F0CC9F90012F
:102CC000CD9F300D300D112480E090E045E34A9512
:102CD000F1F70000019682179307C1F7E5CF81E075
:102CE000CDB7DEB7EAE00C944A30A8E0B0E0EBE7FD
:102CF000F6E10C943430CE0101960E94F01C188548
:102D00006091B7027091B8028091B9029091BA02B5
:102D10000E94FC28643671058105910510F4112389
:102D2000D9F000E010E020E030E048E050E0BE01E3
:102D30006F5F7F4F83E00E94B215882359F00E9495
:102D4000E1286093B7027093B8028093B902909320
:102D5000BA0202C080E003C00E94ED1C81E0289608
:102D6000E4E00C945030A6E0B0E0E9EBF6E10C941E
:102D70002E307B01C090F301D090F40101E010E00F
:102D80009E012A5F3F4F40E050E060E070E080E04D
:102D90000E94B215182F882309F43EC056018FEF08
:102DA000A81AB80A6091AF027091B0028091B10286
:102DB0009091B2020E94FC2864367105810591054C
:102DC00018F105E010E09E012F5F3F4F40E050E01A
:102DD00060E070E081E00E94B215182F65E070E0BD
:102DE000C5010E94B01D91E02E81281390E01923A7
:102DF00039F10E94E1286093AF027093B002809392
:102E0000B1029093B20211C065E070E0C5010E946A
:102E1000B01D9E818913D5CF85E0F6013196DE0184
:102E2000119601900D928A95E1F7112349F085E002
:102E3000FE013196AAEAB2E001900D928A95E1F77F
:102E400085E0EAEAF2E0D70101900D928A95E1F778
:102E5000812F2696EAE00C944A300F931F93CF936C
:102E6000DF93EC018B0143EB56E10E944016811188
:102E700002C080E00EC040E056E1B801CE010E94E1
:102E800040168823B1F345E756E1B801CE010E9410
:102E90004016DF91CF911F910F910895A8E0B0E007
:102EA000E4E5F7E10C9430300091F3011091F40166
:102EB000C801019625E0FB01DC0101900D922A95E5
:102EC000E1F765E070E00E94B01DF8018083668143
:102ED000778180859185C090A602D090A702E0906E
:102EE000A802F090A9026C157D058E059F0551F092
:102EF0006093A6027093A7028093A8029093A90200
:102F00000E943C1388E0F8013A96DE011196019088
:102F10000D928A95E1F7F801118A8885882329F0B6
:102F200060E0CE0101960E94031D2896E8E00C9413
:102F30004C300E94B92A0E94A3100E94C62A08950C
:102F40000E94CB2A0E94BC100E94E52A08950E948C
:102F50006C280E949F2A0E948E100E9499170E943E
:102F6000A0170E949710FBCF8091C10280FF06C07E
:102F700060915E0170E0660F771F26C081FF04C07C
:102F800060915E0184E005C082FF07C060915E0130
:102F900088E0689FB001112417C09091C002992366
:102FA000D1F060915D01961788F720915E0188E06D
:102FB000289F90011124929FA001939F500D1124EE
:102FC00070E0CA010E940C306038710540F4611550
:102FD000710519F406C068E070E0862F08958FE748
:102FE000089581E008958091C10280FF08C060913A
:102FF0005A0170E0759567957595679521C081FFB9
:1030000006C060915A0170E07595679519C082FFFE
:1030100004C060915A0170E010C09091BF029923E2
:1030200099F0609159019617A0F780915A01899FF4
:10303000C001112470E00E940C306038710540F42A
:103040006115710519F406C061E070E0862F0895DE
:103050008FE7089581E008958D3C21F40E94B41714
:10306000819504C08E3C29F40E94B4178093C50258
:1030700008958F3C21F40E94B417819504C0803DCF
:1030800029F40E94B4178093C4020895893D19F46D
:103090000E94F31705C08A3D31F40E94F317819511
:1030A0008093C60208958B3D21F40E94F317819509
:1030B00004C08C3D29F40E94F3178093C702089541
:1030C0009FE2980F983078F421E030E0A90102C027
:1030D000440F551F9A95E2F7CA019091C302892BBC
:1030E0008093C30208958D3D21F48091C1028160D7
:1030F0000BC08E3D21F48091C102826005C08F3DDE
:1031000029F48091C10284608093C10208958D3CAE
:1031100039F49091C50297FF35C01092C50259C08D
:103120008E3C29F49091C5021916BCF32BC09091E6
:10313000C4028F3C29F497FF25C01092C40249C0F5
:10314000803D19F41916CCF31DC09091C602893D3B
:1031500029F41916BCF41092C6023BC08A3D19F43A
:1031600097FF10C0F8CF8B3D39F49091C70297FFBD
:1031700009C01092C7022DC08C3D21F49091C70266
:103180001916BCF39FE2980F983080F421E030E0EC
:10319000A90102C0440F551F9A95E2F7CA01809514
:1031A0009091C30289238093C30213C08D3D21F403
:1031B0008091C1028E7F0BC08E3D21F48091C102AF
:1031C0008D7F05C08F3D29F48091C1028B7F809354
:1031D000C1028091C402811106C08091C502811193
:1031E00002C01092C0028091C602811106C0809177
:1031F000C702811102C01092BF0208950E94D52813
:103200002091C402211104C02091C502222321F083
:103210009093BE028093BD022091C602211104C08A
:103220002091C702222321F09093BC028093BB021D
:1032300082EC92E00E9477270895E2ECF2E086E0CB
:10324000DF011D928A95E9F71092C0021092BF0229
:103250001092C1020895FC01828181110DC0838109
:1032600081110AC08481811107C091E0858181119B
:1032700001C090E0892F01C081E081700895A6E02F
:10328000B0E0E5E4F9E10C94353086E0E2ECF2E000
:10329000DE01119601900D928A95E1F71092C40219
:1032A0001092C5021092C6021092C7028B81811142
:1032B00004C08C81882309F45FC08091BD02909185
:1032C000BE020E94ED28AC019091C002992339F012
:1032D00020915F0130E02417350758F04DC0209150
:1032E00060018AE0289F900111242417350718F007
:1032F00043C09F3F19F09F5F9093C0021B81112331
:1033000061F00E94B417111614F09FEF01C091E014
:10331000989F902D11249093C4021C81112361F079
:103320000E94B417111614F09FEF01C091E0989F0E
:10333000902D11249093C5023091C4023323E1F003
:103340002091C5022223C1F045EB3403C0011124B2
:10335000992319F09093C40203C081E08093C402C2
:1033600035EB2303C0011124992319F09093C50272
:1033700003C081E08093C5028D81811104C08E81DC
:10338000882309F45FC08091BB029091BC020E9427
:10339000ED28AC019091BF02992339F020915B0197
:1033A00030E02417350758F04DC020915C018AE0C9
:1033B000289F900111242417350718F043C09F3F20
:1033C00019F09F5F9093BF021D81112361F00E944D
:1033D000F317111614F09FEF01C091E0989F902D04
:1033E00011249093C6021E81112361F00E94F317ED
:1033F000111614F09FEF01C091E0989F902D1124B9
:103400009093C7023091C6023323E1F02091C702A6
:103410002223C1F045EB3403C0011124992319F094
:103420009093C60203C081E08093C60235EB23036C
:10343000C0011124992319F09093C70203C081E0C1
:103440008093C702BE016F5F7F4F82EC92E00E94C3
:103450001E28811105C082EC92E00E942B19811177
:103460000E94FE1886E0FE013196A2ECB2E00190C7
:103470000D928A95E1F72696E3E00C945130EF9295
:10348000FF920F931F93CF93DF938B01682F11113E
:103490000AC0442329F0E82FF0E0E15DFB4F64917E
:1034A000762F862F75C0212F30E0E82FF0E04423DF
:1034B00021F0E15DFB4FE491F0E046E0049FC001A4
:1034C0001124CFEFD0E0BE010E94F82F4BEA460353
:1034D000C001479F900D1124800F911D800F911DF9
:1034E000982F990F890FAE01421B530B4E9FD001AD
:1034F0004F9FB00D5E9FB00D11249B2F189FA00110
:103500001124452F55278E01041B150B0E9FA0017A
:103510000F9F500D1E9F500D11247E01E81AF108D7
:10352000E29E8001E39E100DF29E100D1124212FCA
:103530003327C21BD30BCE9F9001CF9F300DDE9F50
:10354000300D112462307105A9F048F46115710540
:1035500069F061307105C9F48B2F752F0DC064308F
:10356000710581F058F06630710579F47E2F8B2F4C
:10357000932F0DC0832F7B2F9E2F09C08E2F7B2F63
:10358000952F05C08E2F732F02C07E2F852F692F98
:10359000CDB7DEB7E6E00C944E3041E00E943F1A12
:1035A00008950E94CD1A0895CF93DF93762FE901F5
:1035B000682F842F0E94D11A798368838A83DF91D0
:1035C000CF91089580910803982F9695913021F01E
:1035D0008170826080930803089588E090E00E94E3
:1035E0007B300895CF92DF92EF92FF926B017C01C6
:1035F0000E94E21AB701A60188E090E00E9499308B
:10360000FF90EF90DF90CF900895E8E0F3E083E043
:10361000808311828FEF828383831482A9ECB2E0CE
:1036200012968C911297836012968C9360817181AF
:10363000828193810E94F21A089590910C03933035
:1036400018F49F5F90930C03882351F06091080356
:103650007091090380910A0390910B030E94F21A62
:10366000089581E00E941D1B089590910C039923F9
:1036700019F0915090930C03882351F06091080346
:103680007091090380910A0390910B030E94F21A32
:10369000089581E00E94351B089570E00E94841D0A
:1036A0000895609162018091080380FF0BC08091B2
:1036B000610123E0829FC0011124835F9C4F0E941F
:1036C0004D1B08958091630190916401891778F7EB
:1036D000E82FF0E09F01220F331FE20FF31FE35F9B
:1036E000FC4F1182108212828F5FF0CFE8E0F3E08E
:1036F00080818E7F808360817181828193810E942D
:10370000F21AE9ECF2E08281816082830E94511B0F
:103710000895E8E0F3E080818E7F8083E9ECF2E0B9
:103720008281816082830E94511B089590910803D9
:1037300090FF16C09091630120916401921770F47C
:10374000E92FF0E0DF01AA0FBB1FEA0FFB1FE35FC9
:10375000FC4F8183608342839F5FF0CF0E94511BA7
:103760000895A3E0B0E0E7EBFBE10C9432309091D8
:10377000080390FF3DC030910903381308C0309111
:103780000A03361304C030910B03341729F030912B
:10379000CB0232603093CB02E22E142F062FF82E8C
:1037A000E92FE695F0E0EB50FE4F80818093C9024F
:1037B0009E7F923059F49E012F5F3F4F8F2D0E94C4
:1037C000D41A4B8169818A810E94961BF092090369
:1037D00000930A0310930B03EE2051F0609108034D
:1037E0007091090380910A0390910B030E94F21AD1
:1037F0002396E6E00C944E30E8E0F3E09181282F28
:103800004381628188E0890F0E94B11B089581E0A5
:103810000E94FC1B0895E8E0F3E09181282F43818A
:10382000628188EF890F0E94B11B089581E00E9498
:103830000B1C0895E8E0F3E0628121E1620F08F4D7
:103840006FEF282F438181810E94B11B089581E091
:103850000E941A1C0895E8E0F3E0628121E1621BF6
:1038600008F460E0282F438181810E94B11B0895F4
:1038700081E00E942B1C0895E8E0F3E0438121E100
:10388000420F08F44FEF282F628181810E94B11B03
:10389000089581E00E943C1C0895E8E0F3E0438134
:1038A00021E1421B08F440E0282F628181810E94BF
:1038B000B11B089581E00E944D1C089520E00E94F4
:1038C000B11B08958091080380FF1DC08170826044
:1038D000809308038091CB0281608093CB026623A2
:1038E00051F0609108037091090380910A0390914F
:1038F0000B030E94F21A40910B0360910A0380911E
:1039000009030E945E1C0895682F81E00E94621CDA
:10391000089581E00E94841C0895682F9091080307
:1039200096958FEF890F09F481E00E94621C08953B
:1039300081E00E948D1C089561E00E94621C089540
:10394000E8E0F3E080818160808386950E949C1C82
:1039500008958091080380FF03C00E94761B08959C
:103960000E94A01C089560E00E94621C089580914E
:10397000C802811131C00E94CD0F811104C00E9484
:103980005C100E94051B0E94ED1A6093080370935F
:10399000090380930A0390930B038091CB02836009
:1039A0008093CB026E7F61F40E94051B0E94ED1A8A
:1039B000609308037093090380930A0390930B03A9
:1039C0000E94E21A8091080380FF03C086950E943E
:1039D000B31C81E08093C80208951092CB02089531
:1039E00025E0E8E0F3E0DC0101900D922A95E1F793
:1039F0002091C9023091CA024091CB02FC0125837B
:103A00003683478308951F93CF93DF93EC01162FDE
:103A10008F8180FF0FC0888180FF0AC080910803DA
:103A2000816080930803888186950E94621C02C091
:103A30000E94891B8F8181FF06C0212F4B816A81E3
:103A400089810E94B11BDF91CF911F910895882336
:103A500011F0FA0101C0FB01099508951F93CF935E
:103A6000DF93FB01128111114AC0EC010E94D60EB6
:103A70008272FE01E052F847E531F10520F4EE597B
:103A8000FF4F0C94203011E03AC00E94A91C37C0AF
:103A900048E95CE169E87CE104C049E85CE168E987
:103AA0007CE10E94271D2BC046E15CE167E07CE1E0
:103AB000F8CF47E05CE166E17CE1F3CF48E35CE10D
:103AC00067E27CE1EECF47E25CE168E37CE1E9CFCD
:103AD0004AE55CE169E47CE1E4CF49E45CE16AE564
:103AE0007CE1DFCF49E45BE161E37BE1DACF41E3F5
:103AF0005BE169E47BE1D5CF81E00E949C1C812FD2
:103B0000DF91CF911F910895539A2BB1277F3BB13D
:103B100038604FB7F894FC01CB01880F991F680FEC
:103B2000791F6E0F7F1FE617F70789F0819198E0E4
:103B30003BB9000000C087FF2BB9880F000000C010
:103B400000C000C02BB900C09A9591F7ECCF4FBFD1
:103B50008FE594E00197F1F700C000000895089503
:103B6000FC01680F791F8FEF91E3E617F70771F0FB
:103B70002191822728E030E087FF03C0880F892742
:103B800001C0880F21503109B9F7EFCF0895FB012B
:103B90002281222341F097FF06C0BC017F7780E09D
:103BA00090E00E944F1F81E008950F931F93CF93E1
:103BB000DF93EC018B01FB018281882329F10E94B4
:103BC000D60E8272FE01E053FC47E830F105E0F4C6
:103BD000E958FF4F0C942030882329F002C081114E
:103BE00002C08FEF01C081E00E945E1E0DC080E028
:103BF00009C081E007C082E005C083E003C084E023
:103C000001C085E00E94531EB801CE010E94C71D6D
:103C1000DF91CF911F910F910895909138039230C9
:103C200071F48A3040F490E009966AE070E00E94F6
:103C30000C30875A01C086500E94990708950E944F
:103C4000C021089508950E94221E08958CE090E0FE
:103C50000E94733090E0A0E0B0E08093380390932E
:103C60003903A0933A03B0933B03882331F08130AA
:103C700031F0843041F482E003C080E001C081E093
:103C80008093CC0204C01092CC0210923803809131
:103C900038030E94231E0895609138038CE090E061
:103CA0000E9487300895CF93C82F809338030E94D5
:103CB0004C1E8C2F0E94231ECF9108952091CC0280
:103CC000082E000C990B820F911D27FD9A9563E039
:103CD00070E00E940C3087FD8D5F8093CC02E091F4
:103CE000CC020E2E000CFF0BE950FE4F808180931A
:103CF00038030E944C1E809138030E94231E0895B1
:103D00000E9469278093370390913803913029F4FA
:103D100081FF03C089E30E9499070E94D60E809319
:103D20003C030E94E90E0E94FC0E80913803823011
:103D3000D9F038F48823A1F0813089F588E193E047
:103D40002CC0843019F1853051F58BE191E00E944F
:103D5000E00485E290E00E94E00488E290E01DC06B
:103D600082EE0E9466061BC08091370380FD03C06F
:103D700083E50E94990782EE0E9466068FE39CE924
:103D80000197F1F700C0000087E504C086EE0E94AD
:103D9000990788E10E94990702C00E94E0048FE31E
:103DA0009CE90197F1F700C0000008958091380365
:103DB0008230E1F028F4882361F0813071F023C073
:103DC0008430F9F08530F9F488E290E00E94E00454
:103DD0001AC082EE0E94150716C08CE20E94990755
:103DE0008091370381FF0FC089E308C082EE0E94F3
:103DF00015078091370380FD06C083E50E9499076F
:103E000002C088E2FBCF80913C030E94E60E089539
:103E10008F929F92AF92BF92EF92FF920F931F9358
:103E2000CF93DF934B015C01D09138038CE1E82EF6
:103E3000F12C07E010E021E0D501C4010E2C04C0F4
:103E4000B695A795979587950A94D2F7C82FCF7006
:103E5000222369F0D43031F4CA3020F080E00E948F
:103E60000D1E05C0C11103C00430110524F48C2FB0
:103E70000E940D1E20E00150110984E0E81AF108AB
:103E80000F3F8FEF1807C1F6DF91CF911F910F9170
:103E9000FF90EF90BF90AF909F908F900895CF923A
:103EA000DF92EF92FF926115710521E18207910582
:103EB00008F03FC06115710521E08207910520F0EF
:103EC000209138032230A9F16B017C010E94801EF1
:103ED000C114D10481E0E806F10428F1809138038F
:103EE000811121C021E0E21AF108D701C60188271B
:103EF0009C7FAF70BB272AE0B695A79597958795CD
:103F00002A95D1F7BC01CD0178528F4F9F4F0E9467
:103F1000081F83E0D822EE24FF24C701B6017452A3
:103F20008F4F9F4F02C0C701B6010E94081F0E9419
:103F3000D61EFF90EF90DF90CF900895A4E0B0E000
:103F4000E4EAFFE10C9434308C01892BC1F0F801D4
:103F500080818823A1F019821A821B821C82BE01F3
:103F60006F5F7F4FC8010E94C31F8C0169817A81F6
:103F70008B819C8197FDEBCF0E944F1FE8CF249649
:103F8000E4E00C9450300F931F93FC01DB0180811F
:103F900087FD05C0482F50E060E070E08BC0982F8F
:103FA000907E903CB9F4482F4F7150E060E070E093
:103FB00096E0440F551F661F771F9A95D1F78181B0
:103FC0008F73482B4D935D936D937C931397CF0123
:103FD000029677C0982F907F903E51F541814F73A4
:103FE00050E060E070E08A019B0146E0000F111F85
:103FF000221F331F4A95D1F7482F50E060E070E050
:104000008CE0440F551F661F771F8A95D1F76627EE
:104010007727402B512B622B732B82818F73482B78
:104020004D935D936D937C931397CF01039649C095
:10403000982F987F903FD9F5853FC8F541814F7300
:1040400050E060E070E08A019B019CE0000F111FCE
:10405000221F331F9A95D1F78770482F50E060E0F8
:1040600070E082E1440F551F661F771F8A95D1F7D4
:10407000402B512B622B732B83818F73482B028132
:104080000F7310E020E030E096E0000F111F221FB8
:10409000331F9A95D1F7402B512B622B732B4D93E5
:1040A0005D936D937C931397CF0104960AC04FEFF5
:1040B0005FEFBA014D935D936D937C931397CF019E
:1040C00001964D915D916D917C911397585D6109B9
:1040D0007109411558406105710540F44FEF5FEFDC
:1040E000BA014D935D936D937C9313971F910F913C
:1040F0000895CF93DF93FC01DB0112968C91882306
:1041000009F4DDC09F0130572332310508F0D8C0D3
:10411000EF010E94E20F9093F1028093F002FE0102
:10412000E150F047E232F10520F4E158FF4F0C94E2
:1041300020308091F0028160AAC08091F1028860F5
:10414000B2C08091F0028260A2C08091F00220C0D3
:104150008091F00288609BC08091F1021EC0809126
:10416000F1028260A0C08091F002806190C08091D5
:10417000F00280628CC08091F002806488C00E944E
:10418000220A8091F002806882C08091F0028860EB
:1041900084607DC08091F1028260816084C08091E2
:1041A000F0028E7F74C08091F102877F7CC0809185
:1041B000F0028D7F6CC08091F00220C08091F002EF
:1041C000877F65C08091F1021EC08091F1028D7FD2
:1041D0006AC08091F0028F7E5AC08091F0028F7D7C
:1041E00056C08091F0028F7B52C00E94220A8091BB
:1041F000F0028F774CC08091F002877F8B7F47C0A1
:104200008091F1028D7F8E7F4EC08091F00282FB03
:10421000222720F991E0922790FB82F990FB83F905
:1042200036C08091F102982F909591708E7F892BE6
:1042300090FB81F938C08091F00286FB222720F99B
:1042400091E0922790FB86F922C00E94220A809179
:10425000F00287FB222720F991E0922790FB87F953
:1042600016C081E001C080E00E945F101EC08091F6
:10427000F00284FB222720F991E0922790FB84F939
:1042800006C08091F002982F909590FB80F9809362
:10429000F0020BC08091F10283FB222720F991E00C
:1042A000922790FB83F98093F1028091F002909124
:1042B000F1020E94E70F0E94220A80E001C081E023
:1042C000DF91CF910895A0E0B0E0E9E6F1E20C942F
:1042D0003130E82FF0E0E15DFA4FD490282F269599
:1042E0002695269530E0F901E153FA4F0491877045
:1042F00010E0082E02C0159507950A94E2F70170A8
:104300001127F901E154FA4FE490F12C082E02C074
:10431000F594E7940A94E2F791E0E922FF24F90189
:10432000E155FA4FC491D0E002C0D595C7958A9562
:10433000E2F7C170DD270115110519F081EE0E9429
:104340006606E114F10419F086EE0E9466068D2DD2
:104350000E949907E114F10419F086EE0E941507F6
:104360000115110519F081EE0E941507CD2B19F0EA
:104370008CE20E949907CDB7DEB7E7E00C944D3090
:10438000982F9F709A50963010F0805D01C0895A26
:104390000E9463210895EF92FF920F931F93CF9392
:1043A000DF938C01F62E8AE0E82EF80184918823B1
:1043B00009F457C0813009F042C0E8012196FE019E
:1043C0008491813031F42196FE0184910E949907F5
:1043D00039C0823039F4E8012296FE0184910E94AE
:1043E000660630C0833039F4E8012296FE018491DC
:1043F0000E94150727C0843029F5E8012296FE01A6
:10440000249180E090E030E0205331092A303105DA
:1044100060F4E89EA001E99E500D1124C901840FAB
:10442000951F2196FE012491EECF009759F0EFE9F8
:10443000FFE03197F1F700C000000197F6CF0E942E
:104440006321E8018E010F5F1F4F8F2D882309F430
:10445000ACCFEFE9FFE03197F1F700C000008150E9
:10446000F5CFCDB7DEB7E6E00C944E30893289F156
:10447000F0F4843171F1B0F4873009F077C081E055
:104480008093600184E180935F018AE080935E0104
:104490008EE180935D0188E080935A0188E28093E9
:1044A000590164C092EE980F9A30F0F05FC08035E9
:1044B00009F444C028F48F3409F058C08AE03FC0A2
:1044C000813529F0823509F051C081E038C08FEF85
:1044D00036C08091CF02882379F11092CF021092DA
:1044E000CE021092CD0242C08D518093CF02833014
:1044F00099F038F4813069F08230D9F48FE591E099
:104500000DC0853099F078F0863099F489E591E016
:1045100005C080E691E002C08EE591E09093CE0266
:104520008093CD0223C08DE591E0F8CF8AE591E03C
:10453000F5CF1092CF021AC080E0089586EFE09187
:10454000CD02F091CE02309789F02081082E000C28
:10455000990B820F911D8F3F910519F014F08FEF89
:1045600004C097FF02C0108201C0808381E00895DB
:104570008B3109F469C058F58B3009F490C078F498
:10458000863009F446C020F4853009F44CC08CC054
:10459000873009F44BC0883009F481C085C0803170
:1045A00009F465C068F48E3009F07EC080918B02FA
:1045B00082FB222720F991E0922790FB82F94DC0DF
:1045C000863109F46CC0893109F469C06DC08A3242
:1045D000E9F060F4873209F464C028F48E3108F4FD
:1045E00063C08D514FC08932F1F05EC0833450F406
:1045F0008A3308F046C0853309F453C0883309F480
:104600004EC052C0833409F44CC04EC00E945C10AE
:1046100046C080918B02817F8E7F80938B0281E0E8
:104620008093D00208950E944D0539C080918B027D
:10463000982F9095917090FB80F980938B02911147
:104640002EC0897F877F10C080918B0281FB22273B
:1046500020F991E0922790FB81F980938B029923B6
:10466000F1F080918B02816080938B0218C0809161
:104670008B0283FB222720F991E0922790FB83F99C
:10468000ECCF895321E030E0A90102C0440F551F4F
:104690008A95E2F7CA010E94800A0E94220A81E0FC
:1046A000089581E090E0F7CF80E0089580E00895DC
:1046B0000E9456230895CF93C82F8091D002813055
:1046C00069F038F08230C1F58C2F0E94362281E0EB
:1046D00039C00E94D60E823289F504C00E94D60EDF
:1046E000823261F48C2F0E945823811104C08C2FD8
:1046F0000E94B8221FC081E090E01CC08C2F0E9455
:104700005623811116C0C43189F058F4CB3089F09A
:10471000C031B1F482E08093D00288E30E94362257
:1047200008C0C93219F0C83321F00AC01092D00273
:1047300007C081E0817006C01092D00280E002C004
:1047400080E0F8CFCF910895CF93DF9386319C47D7
:1047500041F5EB010E94D60E982F8A8120913601F7
:1047600030913701882379F09A7A81E009F480E06A
:104770008093D102911102C069E201C065E3C901D1
:104780000E9411280AC08091D102811102C069E201
:1047900001C065E3C9010E9414280E94200F80E037
:1047A00001C081E0DF91CF9108950F931F93CF93C4
:1047B000DF93C42FD22FFC0182818823B1F0409374
:1047C000D4020E94D5289093D3028093D20280E233
:1047D0008C0F883008F04DC0C77081E001C0880F91
:1047E000CA95EAF70E94A30744C08091D4024813F7
:1047F00030C08091D2029091D3020E94ED28883C73
:10480000910538F510E21D0FCD17B9F080E28C0F3D
:10481000883040F4C77081E001C0880FCA95EAF77C
:104820000E94AA07183010F581E09D2F977001C0F3
:10483000880F9A95EAF70E94A307802F0E94990794
:104840001830B8F4D77081E001C0880FDA95EAF724
:104850000AC080E28C0F883060F4C77081E001C02C
:10486000880FCA95EAF70E94AA0703C0802F0E940A
:104870009907DF91CF911F910F9108950F93FC013C
:10488000E851FC47E730F10590F5CB01EF55FF4FBC
:104890000C94203006E221EE41EE6AE17CE723C071
:1048A00007E225EE45EE6BE17CE71DC006E221EE56
:1048B00040EE68E17CE717C007E225EE44EE69E1CF
:1048C0007CE711C006E221EE42EE6CE17CE70BC012
:1048D00007E225EE46EE6DE17CE705C008E221E047
:1048E00045EE6EE17CE70E94D52380E008C0FB0125
:1048F0008281882319F01092D40201C081E00F91C7
:104900000895CF93DF93EC01EA85FB85309719F08A
:104910006C857D8509958B810E94F50E8C810E94A6
:10492000DF0E0E94200F86E0FE0111928A95E9F7C2
:10493000DF91CF910895CF93DF93EC018D8181FDBD
:1049400012C082608D838B810E94EF0E8C810E9449
:10495000D90E0E94200FE885F985309721F06C85EB
:104960007D85CE0109951092D8021092D7028D81D3
:1049700080FD03C0CE010E948124DF91CF91089574
:10498000CF93DF93FC012281223049F4FB01EC013B
:10499000828193810E9498048D8182608D83DF9152
:1049A000CF910895FB01808191810E949804089520
:1049B000FC018281813021F4FB018081918105C05D
:1049C000823029F4FB01828193810E94AF04089513
:1049D000CF93FB01C281CC2301F12091D70230910A
:1049E000D80221153105C1F028173907A9F0AC010B
:1049F000FEE02F9FC0011124FC01EB5FFE4F2081E0
:104A00002460208380509F4FFC01518340830E948B
:104A10009B240E94FC0E01C0C0E08C2FCF91089512
:104A2000EF92FF920F931F93CF93DF939C01375523
:104A30002F3F310511F008F04EC0DB018C017C01E5
:104A4000FF248EE0089FF0011124EF01C050DF4FDA
:104A500012969C911297EB5FFE4F808190FB80F93C
:104A6000808312969C91992389F10E94D528909376
:104A7000D6028093D5028A818F5F8A830E94D60EE8
:104A80008B830E94EC0E9B81892B8B830E94FF0EEF
:104A90008C83EE81FF81309721F06C857D85CE017E
:104AA00009958EE08E9DF0018F9DF00D1124EB5F36
:104AB000FE4F808181FD03C0902F812F02C090E0C6
:104AC00080E09093D7028093D80205C081FF03C095
:104AD000CE010E94812481E0CDB7DEB7E6E00C94E0
:104AE0004E308091D7029091D802892BC9F08091E5
:104AF000D5029091D6020E94ED28893C910580F064
:104B00008091D7022EE0829FC0011124FC01EB5F4F
:104B1000FE4F208122FD04C080509F4F0E949B24A5
:104B200008958EE1489B02C08150E1F7489BFECF7B
:104B30000895589880E28A95F1F7589A0895FC01F3
:104B40002AE02A95F1F728E090E080E031E040E1AA
:104B50004A95F1F7880F489B02C08160932700C0F7
:104B6000000040E14A95F1F7215089F720E12A95AC
:104B7000F1F729B100C0000030E13A95F1F721705A
:104B800092272081920F90830895A1E0B0E0EBEC92
:104B9000F5E20C94323019828C017C01E60EF11C96
:104BA0000E151F0551F00E949125CE0101960E941D
:104BB0009F25F80181938F01F3CF81E099819111B5
:104BC00080E02196E6E00C944E30509A589A089571
:104BD0005098589AE89AE9E6F0E080818C7F8083CB
:104BE0000895615091E001C0990F6A95EAF720E0BD
:104BF00031E0992361F0492F482319F0589A23276F
:104C000001C0589840E24A95F1F79695F2CF2223D9
:104C100011F0589A01C0589880E28A95F1F7589897
:104C20000895FF920F931F93CF93DF93EC018C01B4
:104C3000060F111DC017D10741F0F9900E94992568
:104C400068E08F2D0E94F125F5CFCDB7DEB7E5E006
:104C50000C944F301F920F920FB60F9211240F93A6
:104C60001F932F933F934F935F936F937F938F93F4
:104C70009F93AF93BF93EF93FF93CF93DF931F92D5
:104C8000CDB7DEB719820E949125CE0101960E9410
:104C90009F25082F069506950695902F9695957059
:104CA000202F2570920F292F237096959695920F9D
:104CB000877089135FC0898181115CC0053008F05D
:104CC00059C080E18A95F1F7589A509A82E08A9506
:104CD000F1F700C0589888E0089F80011124D8019E
:104CE000A75CBE4F1696ED91FC9117973097A9F0EF
:104CF0006091F3017091F40114962D913C911597F8
:104D0000260F371F11968D919C911297680F791F6E
:104D100013964C9113978C910995F801E75CFE4F1F
:104D20006381662351F08091F3019091F401248115
:104D30003581820F931F0E9411260E94992580E1E0
:104D40008A95F1F758985098589A80E18A95F1F72A
:104D5000F801E75CFE4F6081662351F08091F3011A
:104D60009091F40121813281820F931F0E94C52509
:104D70000E9491250F90DF91CF91FF91EF91BF910C
:104D8000AF919F918F917F916F915F914F913F91E3
:104D90002F911F910F910F900FBE0F901F9018959C
:104DA0000F931F93CF93DF93853091050CF06DC067
:104DB000EC01F894509A589885E08A95F1F7000034
:104DC0009C2F969595702C2F2570920F892F8370AC
:104DD0009695969523E0CC0FDD1F2A95E1F7980F65
:104DE0008E01092B0E94992584E08A95F1F700C075
:104DF00068E0802F0E94F12580E18A95F1F75098B4
:104E0000589A489902C000C0FCCF87E090E0489BC8
:104E100008C0019721F4509A589A789436C000C07F
:104E2000F6CFFE01E75CFE4F6381662381F080913F
:104E3000F3019091F40124813581820F931F0E9428
:104E4000C525811104C0509A589A78941FC00E94B9
:104E5000912580E28A95F1F75898509A80E18A95D9
:104E6000F1F7C75CDE4F6881662351F08091F30152
:104E70009091F40129813A81820F931F0E9411269B
:104E80000E949925789481E001C080E0DF91CF9164
:104E90001F910F9108959093FB018093FA0108955B
:104EA0009093DF028093DE0208950E9441158111E4
:104EB00003C08091D9020895E091DE02F091DF02F3
:104EC000309729F00190F081E02D0995089580E058
:104ED00008950E9455270895E091DE02F091DF02C7
:104EE000309721F00280F381E02D09950895E0913B
:104EF000DE02F091DF02309739F022E0DC012C93E2
:104F00000480F581E02D09950895A3E0B0E0EBE879
:104F1000F7E20C9436302091DC023091DD02281744
:104F20003907A1F09093DD028093DC02E091DE026C
:104F3000F091DF02309751F023E029839B838A832D
:104F40000680F781E02DCE01019609952396E2E0D7
:104F50000C945230A3E0B0E0E0EBF7E20C94363072
:104F60002091DA023091DB0228173907A1F09093E3
:104F7000DB028093DA02E091DE02F091DF023097EB
:104F800051F024E029839B838A830680F781E02DFA
:104F9000CE01019609952396E2E00C945230FC0173
:104FA000329697E080E0915029F021912223D9F3A5
:104FB0008F5FF9CF0895662349F0FC013296089679
:104FC0002191621729F0E817F907D1F780E00895D9
:104FD00081E008959C01FC0132969FEF80E04191B1
:104FE000461789F09F3F19F4411101C0982F8F5F38
:104FF0008630A9F79F3F39F0F901E90FF11D97FDC0
:10500000FA956283089508959C012A5F3F4FFC0141
:105010004281461301C01282019682179307B9F7A5
:1050200008950E94EA2708950E9404280895029690
:1050300026E0FC0111922A95E9F7089546E050E038
:105040000E945D3021E0892B09F420E0822F089531
:1050500008950E942828089583E08093E0020E942A
:1050600029280895811102C081E001C082E0809367
:10507000E0020E94292808950E943228089581E0C4
:105080008093E0020E94292808950E943F280895F5
:1050900008950E94482808950E94492808950E9472
:1050A000482808950E94482808950E944828089595
:1050B000CF930E9452280E94C9140E944F28C0E03A
:1050C0008C2F0E949413811104C0CF5FCA30C1F7A6
:1050D00001C081E0CF91089585B7806885BF85B70D
:1050E000806885BF08951F920F920FB60F9211240A
:1050F0008F939F93AF93BF938091E102811113C06F
:1051000080913D0390913E03A0913F03B0914003F5
:105110004196A11DB11D80933D0390933E03A09342
:105120003F03B0934003BF91AF919F918F910F9038
:105130000FBE0F901F90189580914503843031F178
:105140000E94C9051092E10220E488E190E00FB6C8
:10515000F894A895809360000FBE2093600083B7F9
:10516000817F846083BF83B7816083BF7894889593
:1051700083B78E7F83BF0FB6F894A89580916000A7
:10518000886180936000109260000FBE08950E94B5
:10519000220A0E94CE05089582E084BD93E095BD69
:1051A0009AEF97BD80936E0008952FB7F894809181
:1051B0003D0390913E03A0913F03B09140032FBF68
:1051C00008952FB7F89460913D0370913E0380914C
:1051D0003F03909140032FBF08959C014FB7F8946F
:1051E00080913D0390913E03A0913F03B091400315
:1051F0004FBF821B930B0895CF92DF92EF92FF92E5
:105200002FB7F894C0903D03D0903E03E0903F0349
:10521000F09040032FBFA7019601261B370B480BC8
:10522000590BCA01B901FF90EF90DF90CF9008951C
:1052300078941F920F920FB60F9211248F939F9321
:10524000AF93BF9380913D0390913E03A0913F03A4
:10525000B09140030196A11DB11D80933D03909331
:105260003E03A0933F03B0934003BF91AF919F9142
:105270008F910F900FBE0F901F90189587E797E7BB
:1052800090930108809300089AE088E10FB6F894A3
:10529000A895809360000FBE90936000FFCF9AE0C6
:1052A00088E10FB6F894A895809360000FBE9093A4
:1052B0006000FFCF8091EA0208959B019091450321
:1052C0009430F1F48F708093E9008FEF9091E800B3
:1052D000815095FD06C095ED9A95F1F7000081117A
:1052E000F5CF8091E80085FF0BC0BA01C90140E00D
:1052F00050E00E94582B8091E8008E778093E80060
:10530000089543E050E0BC0182E00E945D290895C9
:1053100046E050E0BC0182E00E945D290895CF93F1
:10532000DF93EC0148E050E0BC0181E00E945D2980
:1053300088E0FE01A2EEB2E001900D928A95E1F7BD
:10534000DF91CF91089580914403811109C00E949B
:10535000E32C0E94402D8091E20084608093E20063
:1053600008951092440308950E944528089560917D
:10537000410381E0611101C080E00E942C28089562
:105380009091450381E0943009F080E06091410301
:105390000E943228089542E061EC81E00E945C2C7A
:1053A00042E261EC82E00E945C2C9091450381E036
:1053B000943009F080E0609141030E943C280895F8
:1053C00080914703833009F461C030F4813071F07B
:1053D000823009F49BC008958A3009F487C08B306D
:1053E00009F46CC0893009F0A9C020C0809146033F
:1053F000813A09F0A3C08091E800877F8093E8009C
:1054000080914A0390914B03892B21F468E082EE4E
:1054100092E003C060E080E090E070E00E949D2B8D
:105420008091E8008B778093E8000895809146038F
:10543000813209F083C080914A0390914B03029717
:1054400008F07CC08091E800877F8093E80080911D
:10545000E80082FD05C0809145038111F8CF6EC040
:105460002091F3008091F20090E0922B029731F4AA
:105470008091F100813011F0863021F48091F100AB
:105480008093EA028091E8008B7754C080914603B4
:10549000813A09F053C080914A0390914B03892BC4
:1054A00009F04CC08091E800877F8093E8008091EC
:1054B000E80080FFFCCF80916E0137C080914603E9
:1054C0008132E1F580914A0390914B03892BB1F52C
:1054D0008091E800877F8093E8000E94912C809162
:1054E000480380936E010E94220A0895809146032A
:1054F000813221F58091E800877F8093E8000E9447
:10550000912C809149038093EB020895809146038A
:10551000813AA1F48091E800877F8093E800809130
:10552000E80080FFFCCF8091EB028093F100809136
:10553000E8008E778093E8000E94912C089584B74C
:10554000877F84BF0FB6F894A8958091600088612A
:1055500080936000109260000FBE90E080E80FB66C
:10556000F89480936100909361000FBE0E943F28E1
:1055700008950E94E32C0E94402DE2EEF0E080812D
:105580008460808378940E94CB2F089586E691E012
:105590000E9450270895809145038530A9F4809199
:1055A0004503853079F40E949C2880914303882329
:1055B000B1F30E945828882391F30E94422B0E9445
:1055C000220AEDCF0E94C728089508950E94E92A73
:1055D0000895292F332723303105C9F060F4213095
:1055E000310581F02230310509F044C08BE390E0B1
:1055F00029E136E043C021323105E1F022323105A4
:1056000049F138C082E190E024E536E037C09927BF
:105610008130910549F028F0029761F5EFEDF5E052
:1056200005C0E5E1F6E002C0E1E0F6E0849190E03B
:105630009F0124C06115710541F061307105D1F4FD
:1056400089E090E024E436E019C089E090E02BE2A4
:1056500036E014C06115710541F06130710551F4F7
:105660008BE790E026E636E009C080E490E021EE8A
:1056700036E004C080E090E020E030E0FA013183C1
:105680002083089580E189BD82E189BD09B400FECF
:10569000FDCF8091D8008F7D8093D8008091E0006D
:1056A00082608093E0008091E00081FDFCCF08954E
:1056B000A0E0B0E0EEE5FBE20C943030EC018B01B1
:1056C0007A010E94B02C811133C0E114F10439F049
:1056D000F70180819181081B190BC80FD91FC12CBC
:1056E000D12C0115110519F18091E80085FD16C036
:1056F0008091E8008E778093E800E114F10449F08E
:10570000F70180819181C80ED91ED182C08285E0C7
:105710000FC00E94B02C882321F30AC08991809386
:10572000F10001501109FFEFCF1ADF0ADACF80E054
:10573000CDB7DEB7E8E00C944C3020914C033091AB
:105740004D032617370748F06115710539F420918C
:10575000E8002E772093E80001C0B901FC0120E0A9
:105760006115710579F1809145038823F1F1853048
:10577000F1F18091E80083FD3CC08091E80082FD5A
:105780002EC08091E80080FFEBCF2091F300809144
:10579000F20090E0922B6115710551F0883091056F
:1057A00038F421912093F100615071090196F3CFF3
:1057B00021E0089709F020E08091E8008E7780933F
:1057C000E800CECF2111CFCF0AC0809145038823B6
:1057D00061F0853061F08091E80083FD0AC080911E
:1057E000E80082FFF2CF80E0089582E0089583E030
:1057F000089581E0089520914C0330914D032617C0
:10580000370748F06115710539F42091E8002E77CB
:105810002093E80001C0B901FC0120E06115710589
:1058200091F180914503882309F440C0853009F443
:105830003FC08091E80083FD3DC08091E80082FD7B
:105840002FC08091E80080FFE9CF2091F300809184
:10585000F20090E0922B6115710559F088309105A6
:1058600040F424912093F100319661507109019622
:10587000F2CF21E0089709F020E08091E8008E77D0
:105880008093E800CBCF2111CCCF0AC08091450393
:10589000882361F0853061F08091E80083FD0AC0C3
:1058A0008091E80082FFF2CF80E0089582E00895C1
:1058B00083E0089581E00895982F973068F59093DC
:1058C000E900981739F07091EC002091ED005091AB
:1058D000F00003C0242F762F50E021FD02C09F5F0F
:1058E000ECCF3091EB003E7F3093EB003091ED0038
:1058F0003D7F3093ED003091EB0031603093EB0051
:105900007093EC002093ED005093F0002091EE0096
:1059100027FDE5CF80E008958F708093E90081E056
:1059200008958091460387FF11C08091E80082FDB1
:1059300005C0809145038111F8CF11C08091E80026
:105940008B770BC080914503882349F08091E80054
:1059500080FFF8CF8091E8008E778093E80008956B
:105960002091E4003091E50095E64091EC00842F11
:10597000817040FF23C08091E80080FD1DC08091B0
:105980004503882399F0853099F08091EB0085FDDF
:1059900011C04091E4005091E5002417350729F328
:1059A000915011F09A01E1CF84E0089582E00895CA
:1059B00083E0089581E0089580E008954091E80033
:1059C00042FFDDCF08950E94522D0E945A2DE0EE35
:1059D000F0E0808181608083E8EDF0E080818F7766
:1059E000808319BCA7EDB0E08C918E7F8C93808171
:1059F0008F7E80831092440308950F931F93CF935B
:105A0000DF930E94522D0E945A2DC8EDD0E088816C
:105A10008F77888388818068888388818F7D888359
:105A200019BC109245031092410310924303109247
:105A3000420300EE10E0F80180818B7F8083888133
:105A40008160888342E060E080E00E945C2CE1EEAF
:105A5000F0E080818E7F8083E2EEF0E080818160E3
:105A60008083808188608083F80180818E7F80833D
:105A7000888180618883DF91CF911F910F91089574
:105A8000E8EDF0E080818F7E8083E7EDF0E08081BB
:105A90008160808384E082BF81E0809344030E9420
:105AA000FD2C0895E8EDF0E080818E7F80831092D8
:105AB000E20008951092DA001092E10008951F921A
:105AC0000F920FB60F9211242F933F934F935F9332
:105AD0006F937F938F939F93AF93BF93EF93FF93B6
